{
  "_format": "hh-sol-artifact-1",
  "contractName": "Vote",
  "sourceName": "contracts/voting/vote.sol",
  "abi": [
    {
      "anonymous": false,
      "inputs": [
        {
          "indexed": true,
          "internalType": "uint256",
          "name": "groupId",
          "type": "uint256"
        },
        {
          "indexed": true,
          "internalType": "uint256",
          "name": "identityCommitment",
          "type": "uint256"
        }
      ],
      "name": "JoinRequested",
      "type": "event"
    },
    {
      "anonymous": false,
      "inputs": [
        {
          "indexed": true,
          "internalType": "uint256",
          "name": "groupId",
          "type": "uint256"
        },
        {
          "indexed": true,
          "internalType": "uint256",
          "name": "identityCommitment",
          "type": "uint256"
        }
      ],
      "name": "MemberAdded",
      "type": "event"
    },
    {
      "anonymous": false,
      "inputs": [
        {
          "indexed": true,
          "internalType": "uint256",
          "name": "groupId",
          "type": "uint256"
        },
        {
          "indexed": true,
          "internalType": "uint256",
          "name": "pollId",
          "type": "uint256"
        },
        {
          "indexed": false,
          "internalType": "string",
          "name": "title",
          "type": "string"
        },
        {
          "indexed": false,
          "internalType": "string[]",
          "name": "voteMsgs",
          "type": "string[]"
        }
      ],
      "name": "PollAdded",
      "type": "event"
    },
    {
      "anonymous": false,
      "inputs": [
        {
          "indexed": true,
          "internalType": "uint256",
          "name": "groupId",
          "type": "uint256"
        },
        {
          "indexed": true,
          "internalType": "uint256",
          "name": "poolId",
          "type": "uint256"
        },
        {
          "indexed": false,
          "internalType": "string",
          "name": "voteMsg",
          "type": "string"
        }
      ],
      "name": "PoolVoteAdded",
      "type": "event"
    },
    {
      "anonymous": false,
      "inputs": [
        {
          "indexed": true,
          "internalType": "uint256",
          "name": "groupId",
          "type": "uint256"
        },
        {
          "indexed": false,
          "internalType": "bytes32",
          "name": "voteMsg",
          "type": "bytes32"
        }
      ],
      "name": "VoteAdded",
      "type": "event"
    },
    {
      "inputs": [
        {
          "internalType": "uint256",
          "name": "merkleTreeDepth",
          "type": "uint256"
        },
        {
          "internalType": "address",
          "name": "admin",
          "type": "address"
        },
        {
          "internalType": "string",
          "name": "name",
          "type": "string"
        },
        {
          "internalType": "string",
          "name": "description",
          "type": "string"
        },
        {
          "internalType": "string",
          "name": "privacy",
          "type": "string"
        },
        {
          "internalType": "string",
          "name": "icon",
          "type": "string"
        }
      ],
      "name": "CreateGroupExtra",
      "outputs": [
        {
          "internalType": "uint256",
          "name": "groupId",
          "type": "uint256"
        }
      ],
      "stateMutability": "nonpayable",
      "type": "function"
    },
    {
      "inputs": [
        {
          "internalType": "uint256",
          "name": "merkleTreeDepth",
          "type": "uint256"
        },
        {
          "internalType": "address",
          "name": "admin",
          "type": "address"
        },
        {
          "internalType": "string",
          "name": "name",
          "type": "string"
        },
        {
          "internalType": "string",
          "name": "description",
          "type": "string"
        },
        {
          "internalType": "enum Vote.PRIVACY",
          "name": "privacy",
          "type": "uint8"
        },
        {
          "internalType": "string",
          "name": "icon",
          "type": "string"
        },
        {
          "internalType": "address",
          "name": "asset",
          "type": "address"
        }
      ],
      "name": "CreateGroupWithAssetDemand",
      "outputs": [
        {
          "internalType": "uint256",
          "name": "groupId",
          "type": "uint256"
        }
      ],
      "stateMutability": "nonpayable",
      "type": "function"
    },
    {
      "inputs": [],
      "name": "GROUP_ID",
      "outputs": [
        {
          "internalType": "uint256",
          "name": "",
          "type": "uint256"
        }
      ],
      "stateMutability": "view",
      "type": "function"
    },
    {
      "inputs": [
        {
          "internalType": "uint256",
          "name": "groupId",
          "type": "uint256"
        },
        {
          "internalType": "uint256",
          "name": "identityCommitment",
          "type": "uint256"
        }
      ],
      "name": "JoinRequest",
      "outputs": [],
      "stateMutability": "nonpayable",
      "type": "function"
    },
    {
      "inputs": [
        {
          "internalType": "uint256",
          "name": "groupId",
          "type": "uint256"
        },
        {
          "internalType": "uint256",
          "name": "identityCommitment",
          "type": "uint256"
        }
      ],
      "name": "addMember",
      "outputs": [],
      "stateMutability": "nonpayable",
      "type": "function"
    },
    {
      "inputs": [
        {
          "internalType": "uint256",
          "name": "",
          "type": "uint256"
        }
      ],
      "name": "admins",
      "outputs": [
        {
          "internalType": "address",
          "name": "",
          "type": "address"
        }
      ],
      "stateMutability": "view",
      "type": "function"
    },
    {
      "inputs": [
        {
          "internalType": "uint256",
          "name": "groupId",
          "type": "uint256"
        }
      ],
      "name": "checkPrivacy",
      "outputs": [],
      "stateMutability": "nonpayable",
      "type": "function"
    },
    {
      "inputs": [
        {
          "internalType": "uint256",
          "name": "merkleTreeDepth",
          "type": "uint256"
        },
        {
          "internalType": "address",
          "name": "admin",
          "type": "address"
        }
      ],
      "name": "createGroup",
      "outputs": [
        {
          "internalType": "uint256",
          "name": "",
          "type": "uint256"
        }
      ],
      "stateMutability": "nonpayable",
      "type": "function"
    },
    {
      "inputs": [
        {
          "internalType": "uint256",
          "name": "groupId",
          "type": "uint256"
        },
        {
          "internalType": "string[]",
          "name": "voteMsgs",
          "type": "string[]"
        },
        {
          "internalType": "string",
          "name": "title",
          "type": "string"
        }
      ],
      "name": "createPollInGroup",
      "outputs": [
        {
          "internalType": "uint256",
          "name": "pollId",
          "type": "uint256"
        }
      ],
      "stateMutability": "nonpayable",
      "type": "function"
    },
    {
      "inputs": [],
      "name": "group",
      "outputs": [
        {
          "internalType": "contract IGroup",
          "name": "",
          "type": "address"
        }
      ],
      "stateMutability": "view",
      "type": "function"
    },
    {
      "inputs": [
        {
          "internalType": "uint256",
          "name": "",
          "type": "uint256"
        }
      ],
      "name": "groupDesc",
      "outputs": [
        {
          "internalType": "string",
          "name": "",
          "type": "string"
        }
      ],
      "stateMutability": "view",
      "type": "function"
    },
    {
      "inputs": [
        {
          "internalType": "uint256",
          "name": "",
          "type": "uint256"
        }
      ],
      "name": "groupIcon",
      "outputs": [
        {
          "internalType": "string",
          "name": "",
          "type": "string"
        }
      ],
      "stateMutability": "view",
      "type": "function"
    },
    {
      "inputs": [
        {
          "internalType": "uint256",
          "name": "",
          "type": "uint256"
        }
      ],
      "name": "groupName",
      "outputs": [
        {
          "internalType": "string",
          "name": "",
          "type": "string"
        }
      ],
      "stateMutability": "view",
      "type": "function"
    },
    {
      "inputs": [
        {
          "internalType": "uint256",
          "name": "",
          "type": "uint256"
        }
      ],
      "name": "groupPollNum",
      "outputs": [
        {
          "internalType": "uint256",
          "name": "",
          "type": "uint256"
        }
      ],
      "stateMutability": "view",
      "type": "function"
    },
    {
      "inputs": [
        {
          "internalType": "uint256",
          "name": "",
          "type": "uint256"
        },
        {
          "internalType": "uint256",
          "name": "",
          "type": "uint256"
        }
      ],
      "name": "groupPolls",
      "outputs": [
        {
          "internalType": "uint256",
          "name": "group_id",
          "type": "uint256"
        },
        {
          "internalType": "uint256",
          "name": "id",
          "type": "uint256"
        },
        {
          "internalType": "enum PollState",
          "name": "state",
          "type": "uint8"
        },
        {
          "internalType": "string",
          "name": "title",
          "type": "string"
        }
      ],
      "stateMutability": "view",
      "type": "function"
    },
    {
      "inputs": [
        {
          "internalType": "uint256",
          "name": "",
          "type": "uint256"
        }
      ],
      "name": "groupPrivacy",
      "outputs": [
        {
          "internalType": "string",
          "name": "",
          "type": "string"
        }
      ],
      "stateMutability": "view",
      "type": "function"
    },
    {
      "inputs": [
        {
          "internalType": "uint256",
          "name": "",
          "type": "uint256"
        }
      ],
      "name": "groups",
      "outputs": [
        {
          "internalType": "uint256",
          "name": "id",
          "type": "uint256"
        },
        {
          "internalType": "string",
          "name": "name",
          "type": "string"
        },
        {
          "internalType": "string",
          "name": "desc",
          "type": "string"
        },
        {
          "internalType": "string",
          "name": "icon",
          "type": "string"
        },
        {
          "internalType": "enum Vote.PRIVACY",
          "name": "privacy",
          "type": "uint8"
        },
        {
          "internalType": "address",
          "name": "asset",
          "type": "address"
        }
      ],
      "stateMutability": "view",
      "type": "function"
    },
    {
      "inputs": [
        {
          "internalType": "uint256",
          "name": "",
          "type": "uint256"
        },
        {
          "internalType": "uint256",
          "name": "",
          "type": "uint256"
        }
      ],
      "name": "idInGroup",
      "outputs": [
        {
          "internalType": "bool",
          "name": "",
          "type": "bool"
        }
      ],
      "stateMutability": "view",
      "type": "function"
    },
    {
      "inputs": [
        {
          "internalType": "contract IGroup",
          "name": "_group",
          "type": "address"
        },
        {
          "internalType": "contract ISignal",
          "name": "_signal",
          "type": "address"
        }
      ],
      "name": "initialize",
      "outputs": [],
      "stateMutability": "nonpayable",
      "type": "function"
    },
    {
      "inputs": [
        {
          "internalType": "uint256",
          "name": "",
          "type": "uint256"
        },
        {
          "internalType": "uint256",
          "name": "",
          "type": "uint256"
        },
        {
          "internalType": "string",
          "name": "",
          "type": "string"
        }
      ],
      "name": "pollVoteStat",
      "outputs": [
        {
          "internalType": "uint256",
          "name": "",
          "type": "uint256"
        }
      ],
      "stateMutability": "view",
      "type": "function"
    },
    {
      "inputs": [],
      "name": "signal",
      "outputs": [
        {
          "internalType": "contract ISignal",
          "name": "",
          "type": "address"
        }
      ],
      "stateMutability": "view",
      "type": "function"
    },
    {
      "inputs": [
        {
          "internalType": "string",
          "name": "source",
          "type": "string"
        }
      ],
      "name": "stringToBytes32",
      "outputs": [
        {
          "internalType": "bytes32",
          "name": "result",
          "type": "bytes32"
        }
      ],
      "stateMutability": "pure",
      "type": "function"
    },
    {
      "inputs": [
        {
          "internalType": "uint256",
          "name": "rc",
          "type": "uint256"
        },
        {
          "internalType": "uint256",
          "name": "groupId",
          "type": "uint256"
        },
        {
          "internalType": "uint256[8]",
          "name": "group_proof",
          "type": "uint256[8]"
        },
        {
          "internalType": "bytes32",
          "name": "voteMsg",
          "type": "bytes32"
        },
        {
          "internalType": "uint256",
          "name": "nullifierHash",
          "type": "uint256"
        },
        {
          "internalType": "uint256",
          "name": "externalNullifier",
          "type": "uint256"
        },
        {
          "internalType": "uint256[8]",
          "name": "signal_proof",
          "type": "uint256[8]"
        }
      ],
      "name": "vote",
      "outputs": [],
      "stateMutability": "nonpayable",
      "type": "function"
    },
    {
      "inputs": [
        {
          "internalType": "uint256",
          "name": "rc",
          "type": "uint256"
        },
        {
          "internalType": "uint256",
          "name": "groupId",
          "type": "uint256"
        },
        {
          "internalType": "uint256[8]",
          "name": "group_proof",
          "type": "uint256[8]"
        },
        {
          "internalType": "uint256",
          "name": "pollId",
          "type": "uint256"
        },
        {
          "internalType": "string",
          "name": "voteMsg",
          "type": "string"
        },
        {
          "internalType": "uint256",
          "name": "nullifierHash",
          "type": "uint256"
        },
        {
          "internalType": "uint256[8]",
          "name": "signal_proof",
          "type": "uint256[8]"
        }
      ],
      "name": "voteInPoll",
      "outputs": [],
      "stateMutability": "nonpayable",
      "type": "function"
    },
    {
      "inputs": [
        {
          "internalType": "uint256",
          "name": "rc",
          "type": "uint256"
        },
        {
          "internalType": "uint256",
          "name": "groupId",
          "type": "uint256"
        },
        {
          "internalType": "uint256[8]",
          "name": "group_proof",
          "type": "uint256[8]"
        },
        {
          "internalType": "uint256",
          "name": "pollId",
          "type": "uint256"
        },
        {
          "internalType": "string",
          "name": "voteMsg",
          "type": "string"
        },
        {
          "internalType": "uint256",
          "name": "nullifierHash",
          "type": "uint256"
        },
        {
          "internalType": "uint256",
          "name": "externalNullifier",
          "type": "uint256"
        },
        {
          "internalType": "uint256[8]",
          "name": "signal_proof",
          "type": "uint256[8]"
        }
      ],
      "name": "votePollInGroup",
      "outputs": [],
      "stateMutability": "nonpayable",
      "type": "function"
    },
    {
      "inputs": [
        {
          "internalType": "uint256",
          "name": "",
          "type": "uint256"
        },
        {
          "internalType": "bytes32",
          "name": "",
          "type": "bytes32"
        }
      ],
      "name": "voteStat",
      "outputs": [
        {
          "internalType": "uint256",
          "name": "",
          "type": "uint256"
        }
      ],
      "stateMutability": "view",
      "type": "function"
    }
  ],
  "bytecode": "0x608060405234801561001057600080fd5b5061335d806100206000396000f3fe608060405234801561001057600080fd5b506004361061018e5760003560e01c80638bf63c74116100de578063c496c4ed11610097578063cdd08ed311610071578063cdd08ed31461050d578063cfb5192814610529578063d643faac14610559578063eb0db130146105895761018e565b8063c496c4ed14610491578063c8b88cfb146104c1578063c96e71fb146104dd5761018e565b80638bf63c74146103805780638e52dd69146103b057806396324bd4146103e0578063a31a656714610415578063bdf4021b14610445578063be1e386c146104615761018e565b806328ce2d321161014b5780634dd9c0b5116101255780634dd9c0b5146102e1578063640d090b146102ff5780636a1c16ec1461031d5780637cdac869146103505761018e565b806328ce2d321461028b57806329e7ef2d146102a7578063485cc955146102c55761018e565b80630c4cbf1614610193578063134d63a2146101c357806314a9c807146101f357806314bfd6d01461020f57806314f413741461023f5780631783efc31461026f575b600080fd5b6101ad60048036038101906101a89190612378565b6105b9565b6040516101ba9190612b52565b60405180910390f35b6101dd60048036038101906101d891906120fb565b6108f4565b6040516101ea9190612a90565b60405180910390f35b61020d600480360381019061020891906125db565b610994565b005b610229600480360381019061022491906120fb565b610a8d565b60405161023691906129aa565b60405180910390f35b610259600480360381019061025491906120fb565b610ac0565b6040516102669190612b52565b60405180910390f35b6102896004803603810190610284919061243d565b610ad8565b005b6102a560048036038101906102a0919061251c565b610c4f565b005b6102af610d5c565b6040516102bc91906129fb565b60405180910390f35b6102df60048036038101906102da919061207e565b610d80565b005b6102e9610e15565b6040516102f69190612b52565b60405180910390f35b610307610e1b565b6040516103149190612a16565b60405180910390f35b6103376004803603810190610332919061243d565b610e41565b6040516103479493929190612ccf565b60405180910390f35b61036a60048036038101906103659190612401565b610f13565b6040516103779190612b52565b60405180910390f35b61039a6004803603810190610395919061243d565b610f38565b6040516103a791906129c5565b60405180910390f35b6103ca60048036038101906103c591906126ae565b610f67565b6040516103d79190612b52565b60405180910390f35b6103fa60048036038101906103f591906120fb565b610faf565b60405161040c96959493929190612bc1565b60405180910390f35b61042f600480360381019061042a91906120fb565b6111b0565b60405161043c9190612a90565b60405180910390f35b61045f600480360381019061045a9190612479565b611250565b005b61047b600480360381019061047691906120fb565b6114af565b6040516104889190612a90565b60405180910390f35b6104ab60048036038101906104a6919061227c565b61154f565b6040516104b89190612b52565b60405180910390f35b6104db60048036038101906104d691906120fb565b6115f7565b005b6104f760048036038101906104f2919061214d565b61179e565b6040516105049190612b52565b60405180910390f35b6105276004803603810190610522919061243d565b6118a3565b005b610543600480360381019061053e91906120ba565b6118d5565b60405161055091906129e0565b60405180910390f35b610573600480360381019061056e9190612189565b6118ff565b6040516105809190612b52565b60405180910390f35b6105a3600480360381019061059e91906120fb565b611b76565b6040516105b09190612a90565b60405180910390f35b6000600c600087815260200190815260200160002060008154809291906105df90613082565b9190505590506040518060a001604052808781526020018281526020018686905067ffffffffffffffff81111561063f577f4e487b7100000000000000000000000000000000000000000000000000000000600052604160045260246000fd5b60405190808252806020026020018201604052801561067257816020015b606081526020019060019003908161065d5790505b508152602001600060028111156106b2577f4e487b7100000000000000000000000000000000000000000000000000000000600052602160045260246000fd5b815260200184848080601f016020809104026020016040519081016040528093929190818152602001838380828437600081840152601f19601f82011690508083019250505050505050815250600b6000888152602001908152602001600020600083815260200190815260200160002060008201518160000155602082015181600101556040820151816002019080519060200190610753929190611ca6565b5060608201518160030160006101000a81548160ff021916908360028111156107a5577f4e487b7100000000000000000000000000000000000000000000000000000000600052602160045260246000fd5b021790555060808201518160040190805190602001906107c6929190611d06565b5090505060005b858590508110156108ab57858582818110610811577f4e487b7100000000000000000000000000000000000000000000000000000000600052603260045260246000fd5b90506020028101906108239190612d1b565b600b60008a815260200190815260200160002060008581526020019081526020016000206002018381548110610882577f4e487b7100000000000000000000000000000000000000000000000000000000600052603260045260246000fd5b906000526020600020019190610899929190611d8c565b50806108a490613082565b90506107cd565b5080867f72810a908f05d76be9e399694196c4b6e25c513a173497f220c85488bf1cb710858589896040516108e39493929190612a55565b60405180910390a395945050505050565b600760205280600052604060002060009150905080546109139061301f565b80601f016020809104026020016040519081016040528092919081815260200182805461093f9061301f565b801561098c5780601f106109615761010080835404028352916020019161098c565b820191906000526020600020905b81548152906001019060200180831161096f57829003601f168201915b505050505081565b6109ef8989896109e789898080601f016020809104026020016040519081016040528093929190818152602001838380828437600081840152601f19601f820116905080830192505050505050506118d5565b878787611250565b600d600089815260200190815260200160002060008781526020019081526020016000208585604051610a23929190612991565b90815260200160405180910390206000815480929190610a4290613082565b919050555085887fa785f00daff380596c63910b315b519bb13df90ed6743b7ed0c312cafb36b9f08787604051610a7a929190612a31565b60405180910390a3505050505050505050565b60056020528060005260406000206000915054906101000a900473ffffffffffffffffffffffffffffffffffffffff1681565b600c6020528060005260406000206000915090505481565b60046000838152602001908152602001600020600082815260200190815260200160002060009054906101000a900460ff1615610b4a576040517f08c379a0000000000000000000000000000000000000000000000000000000008152600401610b4190612ab2565b60405180910390fd5b610b53826115f7565b60008054906101000a900473ffffffffffffffffffffffffffffffffffffffff1673ffffffffffffffffffffffffffffffffffffffff16631783efc383836040518363ffffffff1660e01b8152600401610bae929190612c37565b600060405180830381600087803b158015610bc857600080fd5b505af1158015610bdc573d6000803e3d6000fd5b50505050600160046000848152602001908152602001600020600083815260200190815260200160002060006101000a81548160ff02191690831515021790555080827fa7971101f3ab1808fedaf53dcda952637961dcc1153334a243c3426fc83c859460405160405180910390a35050565b600085608089901b610c619190612e7f565b9050610cbe898989610cb689898080601f016020809104026020016040519081016040528093929190818152602001838380828437600081840152601f19601f820116905080830192505050505050506118d5565b878688611250565b600d600089815260200190815260200160002060008781526020019081526020016000208585604051610cf2929190612991565b90815260200160405180910390206000815480929190610d1190613082565b919050555085887fa785f00daff380596c63910b315b519bb13df90ed6743b7ed0c312cafb36b9f08787604051610d49929190612a31565b60405180910390a3505050505050505050565b60008054906101000a900473ffffffffffffffffffffffffffffffffffffffff1681565b610d88611c16565b816000806101000a81548173ffffffffffffffffffffffffffffffffffffffff021916908373ffffffffffffffffffffffffffffffffffffffff16021790555080600160006101000a81548173ffffffffffffffffffffffffffffffffffffffff021916908373ffffffffffffffffffffffffffffffffffffffff16021790555060006003819055505050565b60035481565b600160009054906101000a900473ffffffffffffffffffffffffffffffffffffffff1681565b600b602052816000526040600020602052806000526040600020600091509150508060000154908060010154908060030160009054906101000a900460ff1690806004018054610e909061301f565b80601f0160208091040260200160405190810160405280929190818152602001828054610ebc9061301f565b8015610f095780601f10610ede57610100808354040283529160200191610f09565b820191906000526020600020905b815481529060010190602001808311610eec57829003601f168201915b5050505050905084565b6002602052816000526040600020602052806000526040600020600091509150505481565b60046020528160005260406000206020528060005260406000206000915091509054906101000a900460ff1681565b600d6020528260005260406000206020528160005260406000208180516020810182018051848252602083016020850120818352809550505050505060009250925050505481565b600a602052806000526040600020600091509050806000015490806001018054610fd89061301f565b80601f01602080910402602001604051908101604052809291908181526020018280546110049061301f565b80156110515780601f1061102657610100808354040283529160200191611051565b820191906000526020600020905b81548152906001019060200180831161103457829003601f168201915b5050505050908060020180546110669061301f565b80601f01602080910402602001604051908101604052809291908181526020018280546110929061301f565b80156110df5780601f106110b4576101008083540402835291602001916110df565b820191906000526020600020905b8154815290600101906020018083116110c257829003601f168201915b5050505050908060030180546110f49061301f565b80601f01602080910402602001604051908101604052809291908181526020018280546111209061301f565b801561116d5780601f106111425761010080835404028352916020019161116d565b820191906000526020600020905b81548152906001019060200180831161115057829003601f168201915b5050505050908060040160009054906101000a900460ff16908060040160019054906101000a900473ffffffffffffffffffffffffffffffffffffffff16905086565b600860205280600052604060002060009150905080546111cf9061301f565b80601f01602080910402602001604051908101604052809291908181526020018280546111fb9061301f565b80156112485780601f1061121d57610100808354040283529160200191611248565b820191906000526020600020905b81548152906001019060200180831161122b57829003601f168201915b505050505081565b60008054906101000a900473ffffffffffffffffffffffffffffffffffffffff1673ffffffffffffffffffffffffffffffffffffffff1663f452ffa28888886040518463ffffffff1660e01b81526004016112ad93929190612c97565b602060405180830381600087803b1580156112c757600080fd5b505af11580156112db573d6000803e3d6000fd5b505050506040513d601f19601f820116820180604052508101906112ff9190612055565b61133e576040517f08c379a000000000000000000000000000000000000000000000000000000000815260040161133590612ad2565b60405180910390fd5b600160009054906101000a900473ffffffffffffffffffffffffffffffffffffffff1673ffffffffffffffffffffffffffffffffffffffff166346cf37b688868686866040518663ffffffff1660e01b81526004016113a1959493929190612b6d565b602060405180830381600087803b1580156113bb57600080fd5b505af11580156113cf573d6000803e3d6000fd5b505050506040513d601f19601f820116820180604052508101906113f39190612055565b611432576040517f08c379a000000000000000000000000000000000000000000000000000000000815260040161142990612b32565b60405180910390fd5b857f9259c591af3680137739dc2b275c388eb1639a143b49022e7062fa162f14776d8560405161146291906129e0565b60405180910390a26001600260008881526020019081526020016000206000868152602001908152602001600020600082825461149f9190612e7f565b9250508190555050505050505050565b600960205280600052604060002060009150905080546114ce9061301f565b80601f01602080910402602001604051908101604052809291908181526020018280546114fa9061301f565b80156115475780601f1061151c57610100808354040283529160200191611547565b820191906000526020600020905b81548152906001019060200180831161152a57829003601f168201915b505050505081565b600061155b8b8b61179e565b9050888860096000848152602001908152602001600020919061157f929190611d8c565b5086866006600084815260200190815260200160002091906115a2929190611d8c565b5084846008600084815260200190815260200160002091906115c5929190611d8c565b5082826007600084815260200190815260200160002091906115e8929190611d8c565b509a9950505050505050505050565b60016002811115611631577f4e487b7100000000000000000000000000000000000000000000000000000000600052602160045260246000fd5b600a600083815260200190815260200160002060040160009054906101000a900460ff16600281111561168d577f4e487b7100000000000000000000000000000000000000000000000000000000600052602160045260246000fd5b141561179b576000600a600083815260200190815260200160002060040160019054906101000a900473ffffffffffffffffffffffffffffffffffffffff16905060008173ffffffffffffffffffffffffffffffffffffffff166370a08231336040518263ffffffff1660e01b815260040161170991906129aa565b60206040518083038186803b15801561172157600080fd5b505afa158015611735573d6000803e3d6000fd5b505050506040513d601f19601f820116820180604052508101906117599190612124565b11611799576040517f08c379a000000000000000000000000000000000000000000000000000000000815260040161179090612b12565b60405180910390fd5b505b50565b60008060009054906101000a900473ffffffffffffffffffffffffffffffffffffffff1673ffffffffffffffffffffffffffffffffffffffff16639c1121416003600081546117ec90613082565b91905081905585306040518463ffffffff1660e01b815260040161181293929190612c60565b600060405180830381600087803b15801561182c57600080fd5b505af1158015611840573d6000803e3d6000fd5b505050508160056000600354815260200190815260200160002060006101000a81548173ffffffffffffffffffffffffffffffffffffffff021916908373ffffffffffffffffffffffffffffffffffffffff160217905550600354905092915050565b80827fde2269d339c1bc109f68138c6cfc49c60f864e49a5744459bcce7170c4fb2ad660405160405180910390a35050565b6000808290506000815114156118f1576000801b9150506118fa565b60208301519150505b919050565b600061190b8b8b61179e565b90506040518060c001604052808281526020018a8a8080601f016020809104026020016040519081016040528093929190818152602001838380828437600081840152601f19601f82011690508083019250505050505050815260200188888080601f016020809104026020016040519081016040528093929190818152602001838380828437600081840152601f19601f82011690508083019250505050505050815260200185858080601f016020809104026020016040519081016040528093929190818152602001838380828437600081840152601f19601f820116905080830192505050505050508152602001866002811115611a35577f4e487b7100000000000000000000000000000000000000000000000000000000600052602160045260246000fd5b81526020018373ffffffffffffffffffffffffffffffffffffffff16815250600a6000838152602001908152602001600020600082015181600001556020820151816001019080519060200190611a8d929190611d06565b506040820151816002019080519060200190611aaa929190611d06565b506060820151816003019080519060200190611ac7929190611d06565b5060808201518160040160006101000a81548160ff02191690836002811115611b19577f4e487b7100000000000000000000000000000000000000000000000000000000600052602160045260246000fd5b021790555060a08201518160040160016101000a81548173ffffffffffffffffffffffffffffffffffffffff021916908373ffffffffffffffffffffffffffffffffffffffff1602179055509050509a9950505050505050505050565b60066020528060005260406000206000915090508054611b959061301f565b80601f0160208091040260200160405190810160405280929190818152602001828054611bc19061301f565b8015611c0e5780601f10611be357610100808354040283529160200191611c0e565b820191906000526020600020905b815481529060010190602001808311611bf157829003601f168201915b505050505081565b60007f8e94fed44239eb2314ab7a406345e6c5a8f0ccedf3b600de3d004e672c33abf454905060017f8e94fed44239eb2314ab7a406345e6c5a8f0ccedf3b600de3d004e672c33abf45560008114611ca3576040517f08c379a0000000000000000000000000000000000000000000000000000000008152600401611c9a90612af2565b60405180910390fd5b50565b828054828255906000526020600020908101928215611cf5579160200282015b82811115611cf4578251829080519060200190611ce4929190611d06565b5091602001919060010190611cc6565b5b509050611d029190611e12565b5090565b828054611d129061301f565b90600052602060002090601f016020900481019282611d345760008555611d7b565b82601f10611d4d57805160ff1916838001178555611d7b565b82800160010185558215611d7b579182015b82811115611d7a578251825591602001919060010190611d5f565b5b509050611d889190611e36565b5090565b828054611d989061301f565b90600052602060002090601f016020900481019282611dba5760008555611e01565b82601f10611dd357803560ff1916838001178555611e01565b82800160010185558215611e01579182015b82811115611e00578235825591602001919060010190611de5565b5b509050611e0e9190611e36565b5090565b5b80821115611e325760008181611e299190611e53565b50600101611e13565b5090565b5b80821115611e4f576000816000905550600101611e37565b5090565b508054611e5f9061301f565b6000825580601f10611e715750611e90565b601f016020900490600052602060002090810190611e8f9190611e36565b5b50565b6000611ea6611ea184612d97565b612d72565b905082815260208101848484011115611ebe57600080fd5b611ec9848285612fdd565b509392505050565b600081359050611ee08161328d565b92915050565b60008083601f840112611ef857600080fd5b8235905067ffffffffffffffff811115611f1157600080fd5b602083019150836020820283011115611f2957600080fd5b9250929050565b600081905082602060080282011115611f4857600080fd5b92915050565b600081519050611f5d816132a4565b92915050565b600081359050611f72816132bb565b92915050565b600081359050611f87816132d2565b92915050565b600081359050611f9c816132e9565b92915050565b600081359050611fb181613300565b92915050565b60008083601f840112611fc957600080fd5b8235905067ffffffffffffffff811115611fe257600080fd5b602083019150836001820283011115611ffa57600080fd5b9250929050565b600082601f83011261201257600080fd5b8135612022848260208601611e93565b91505092915050565b60008135905061203a81613310565b92915050565b60008151905061204f81613310565b92915050565b60006020828403121561206757600080fd5b600061207584828501611f4e565b91505092915050565b6000806040838503121561209157600080fd5b600061209f85828601611f78565b92505060206120b085828601611f8d565b9150509250929050565b6000602082840312156120cc57600080fd5b600082013567ffffffffffffffff8111156120e657600080fd5b6120f284828501612001565b91505092915050565b60006020828403121561210d57600080fd5b600061211b8482850161202b565b91505092915050565b60006020828403121561213657600080fd5b600061214484828501612040565b91505092915050565b6000806040838503121561216057600080fd5b600061216e8582860161202b565b925050602061217f85828601611ed1565b9150509250929050565b60008060008060008060008060008060e08b8d0312156121a857600080fd5b60006121b68d828e0161202b565b9a505060206121c78d828e01611ed1565b99505060408b013567ffffffffffffffff8111156121e457600080fd5b6121f08d828e01611fb7565b985098505060608b013567ffffffffffffffff81111561220f57600080fd5b61221b8d828e01611fb7565b9650965050608061222e8d828e01611fa2565b94505060a08b013567ffffffffffffffff81111561224b57600080fd5b6122578d828e01611fb7565b935093505060c061226a8d828e01611ed1565b9150509295989b9194979a5092959850565b60008060008060008060008060008060c08b8d03121561229b57600080fd5b60006122a98d828e0161202b565b9a505060206122ba8d828e01611ed1565b99505060408b013567ffffffffffffffff8111156122d757600080fd5b6122e38d828e01611fb7565b985098505060608b013567ffffffffffffffff81111561230257600080fd5b61230e8d828e01611fb7565b965096505060808b013567ffffffffffffffff81111561232d57600080fd5b6123398d828e01611fb7565b945094505060a08b013567ffffffffffffffff81111561235857600080fd5b6123648d828e01611fb7565b92509250509295989b9194979a5092959850565b60008060008060006060868803121561239057600080fd5b600061239e8882890161202b565b955050602086013567ffffffffffffffff8111156123bb57600080fd5b6123c788828901611ee6565b9450945050604086013567ffffffffffffffff8111156123e657600080fd5b6123f288828901611fb7565b92509250509295509295909350565b6000806040838503121561241457600080fd5b60006124228582860161202b565b925050602061243385828601611f63565b9150509250929050565b6000806040838503121561245057600080fd5b600061245e8582860161202b565b925050602061246f8582860161202b565b9150509250929050565b60008060008060008060006102a0888a03121561249557600080fd5b60006124a38a828b0161202b565b97505060206124b48a828b0161202b565b96505060406124c58a828b01611f30565b9550506101406124d78a828b01611f63565b9450506101606124e98a828b0161202b565b9350506101806124fb8a828b0161202b565b9250506101a061250d8a828b01611f30565b91505092959891949750929550565b6000806000806000806000806102a0898b03121561253957600080fd5b60006125478b828c0161202b565b98505060206125588b828c0161202b565b97505060406125698b828c01611f30565b96505061014061257b8b828c0161202b565b95505061016089013567ffffffffffffffff81111561259957600080fd5b6125a58b828c01611fb7565b94509450506101806125b98b828c0161202b565b9250506101a06125cb8b828c01611f30565b9150509295985092959890939650565b60008060008060008060008060006102c08a8c0312156125fa57600080fd5b60006126088c828d0161202b565b99505060206126198c828d0161202b565b985050604061262a8c828d01611f30565b97505061014061263c8c828d0161202b565b9650506101608a013567ffffffffffffffff81111561265a57600080fd5b6126668c828d01611fb7565b955095505061018061267a8c828d0161202b565b9350506101a061268c8c828d0161202b565b9250506101c061269e8c828d01611f30565b9150509295985092959850929598565b6000806000606084860312156126c357600080fd5b60006126d18682870161202b565b93505060206126e28682870161202b565b925050604084013567ffffffffffffffff8111156126ff57600080fd5b61270b86828701612001565b9150509250925092565b600061272284848461281b565b90509392505050565b61273481612ed5565b82525050565b60006127468385612dea565b93508360208402850161275884612dc8565b8060005b8781101561279e5784840389526127738284612e28565b61277e868284612715565b955061278984612ddd565b935060208b019a50505060018101905061275c565b50829750879450505050509392505050565b6127bd6101008383612fdd565b5050565b6127ca81612ee7565b82525050565b6127d981612ef3565b82525050565b6127e881612f71565b82525050565b6127f781612f95565b82525050565b61280681612fb9565b82525050565b61281581612fcb565b82525050565b60006128278385612dfb565b9350612834838584612fdd565b61283d83613187565b840190509392505050565b60006128548385612e0c565b9350612861838584612fdd565b61286a83613187565b840190509392505050565b60006128818385612e1d565b935061288e838584612fdd565b82840190509392505050565b60006128a582612dd2565b6128af8185612e0c565b93506128bf818560208601612fec565b6128c881613187565b840191505092915050565b60006128e0601283612e0c565b91506128eb82613198565b602082019050919050565b6000612903600f83612e0c565b915061290e826131c1565b602082019050919050565b6000612926600283612e0c565b9150612931826131ea565b602082019050919050565b6000612949600c83612e0c565b915061295482613213565b602082019050919050565b600061296c600b83612e0c565b91506129778261323c565b602082019050919050565b61298b81612f67565b82525050565b600061299e828486612875565b91508190509392505050565b60006020820190506129bf600083018461272b565b92915050565b60006020820190506129da60008301846127c1565b92915050565b60006020820190506129f560008301846127d0565b92915050565b6000602082019050612a1060008301846127df565b92915050565b6000602082019050612a2b60008301846127ee565b92915050565b60006020820190508181036000830152612a4c818486612848565b90509392505050565b60006040820190508181036000830152612a70818688612848565b90508181036020830152612a8581848661273a565b905095945050505050565b60006020820190508181036000830152612aaa818461289a565b905092915050565b60006020820190508181036000830152612acb816128d3565b9050919050565b60006020820190508181036000830152612aeb816128f6565b9050919050565b60006020820190508181036000830152612b0b81612919565b9050919050565b60006020820190508181036000830152612b2b8161293c565b9050919050565b60006020820190508181036000830152612b4b8161295f565b9050919050565b6000602082019050612b676000830184612982565b92915050565b600061018082019050612b836000830188612982565b612b9060208301876127d0565b612b9d6040830186612982565b612baa6060830185612982565b612bb760808301846127b0565b9695505050505050565b600060c082019050612bd66000830189612982565b8181036020830152612be8818861289a565b90508181036040830152612bfc818761289a565b90508181036060830152612c10818661289a565b9050612c1f60808301856127fd565b612c2c60a083018461272b565b979650505050505050565b6000604082019050612c4c6000830185612982565b612c596020830184612982565b9392505050565b6000606082019050612c756000830186612982565b612c826020830185612982565b612c8f604083018461272b565b949350505050565b600061014082019050612cad6000830186612982565b612cba6020830185612982565b612cc760408301846127b0565b949350505050565b6000608082019050612ce46000830187612982565b612cf16020830186612982565b612cfe604083018561280c565b8181036060830152612d10818461289a565b905095945050505050565b60008083356001602003843603038112612d3457600080fd5b80840192508235915067ffffffffffffffff821115612d5257600080fd5b602083019250600182023603831315612d6a57600080fd5b509250929050565b6000612d7c612d8d565b9050612d888282613051565b919050565b6000604051905090565b600067ffffffffffffffff821115612db257612db1613158565b5b612dbb82613187565b9050602081019050919050565b6000819050919050565b600081519050919050565b6000602082019050919050565b600082825260208201905092915050565b600082825260208201905092915050565b600082825260208201905092915050565b600081905092915050565b60008083356001602003843603038112612e4157600080fd5b83810192508235915060208301925067ffffffffffffffff821115612e6557600080fd5b600182023603841315612e7757600080fd5b509250929050565b6000612e8a82612f67565b9150612e9583612f67565b9250827fffffffffffffffffffffffffffffffffffffffffffffffffffffffffffffffff03821115612eca57612ec96130cb565b5b828201905092915050565b6000612ee082612f47565b9050919050565b60008115159050919050565b6000819050919050565b6000612f0882612ed5565b9050919050565b6000612f1a82612ed5565b9050919050565b6000819050612f2f82613265565b919050565b6000819050612f4282613279565b919050565b600073ffffffffffffffffffffffffffffffffffffffff82169050919050565b6000819050919050565b6000612f7c82612f83565b9050919050565b6000612f8e82612f47565b9050919050565b6000612fa082612fa7565b9050919050565b6000612fb282612f47565b9050919050565b6000612fc482612f21565b9050919050565b6000612fd682612f34565b9050919050565b82818337600083830152505050565b60005b8381101561300a578082015181840152602081019050612fef565b83811115613019576000848401525b50505050565b6000600282049050600182168061303757607f821691505b6020821081141561304b5761304a613129565b5b50919050565b61305a82613187565b810181811067ffffffffffffffff8211171561307957613078613158565b5b80604052505050565b600061308d82612f67565b91507fffffffffffffffffffffffffffffffffffffffffffffffffffffffffffffffff8214156130c0576130bf6130cb565b5b600182019050919050565b7f4e487b7100000000000000000000000000000000000000000000000000000000600052601160045260246000fd5b7f4e487b7100000000000000000000000000000000000000000000000000000000600052602160045260246000fd5b7f4e487b7100000000000000000000000000000000000000000000000000000000600052602260045260246000fd5b7f4e487b7100000000000000000000000000000000000000000000000000000000600052604160045260246000fd5b6000601f19601f8301169050919050565b7f696420657869737420696e2067726f7570210000000000000000000000000000600082015250565b7f67726f75702070726f6f66206572720000000000000000000000000000000000600082015250565b7f3142000000000000000000000000000000000000000000000000000000000000600082015250565b7f6d697373696e67206e6674210000000000000000000000000000000000000000600082015250565b7f7369676e616c206661696c000000000000000000000000000000000000000000600082015250565b60038110613276576132756130fa565b5b50565b6003811061328a576132896130fa565b5b50565b61329681612ed5565b81146132a157600080fd5b50565b6132ad81612ee7565b81146132b857600080fd5b50565b6132c481612ef3565b81146132cf57600080fd5b50565b6132db81612efd565b81146132e657600080fd5b50565b6132f281612f0f565b81146132fd57600080fd5b50565b6003811061330d57600080fd5b50565b61331981612f67565b811461332457600080fd5b5056fea2646970667358221220be11f8a4868c5c85943e31d2c6cfe5037da247df71d35899f047948e949a1cd664736f6c63430008040033",
  "linkReferences": {},
  "deployedLinkReferences": {}
}