{
  "_format": "hh-sol-artifact-1",
  "contractName": "Group",
  "sourceName": "contracts/group/group.sol",
  "abi": [
    {
      "inputs": [
        {
          "components": [
            {
              "internalType": "address",
              "name": "contractAddress",
              "type": "address"
            },
            {
              "internalType": "uint256",
              "name": "merkleTreeDepth",
              "type": "uint256"
            }
          ],
          "internalType": "struct IGroup.Verifier[]",
          "name": "_verifiers",
          "type": "tuple[]"
        }
      ],
      "stateMutability": "nonpayable",
      "type": "constructor"
    },
    {
      "inputs": [],
      "name": "Semaphore__GroupAlreadyExists",
      "type": "error"
    },
    {
      "inputs": [],
      "name": "Semaphore__GroupDoesNotExist",
      "type": "error"
    },
    {
      "inputs": [],
      "name": "Semaphore__GroupIdIsNotLessThanSnarkScalarField",
      "type": "error"
    },
    {
      "anonymous": false,
      "inputs": [
        {
          "indexed": true,
          "internalType": "uint256",
          "name": "groupId",
          "type": "uint256"
        },
        {
          "indexed": false,
          "internalType": "uint256",
          "name": "merkleTreeDepth",
          "type": "uint256"
        },
        {
          "indexed": false,
          "internalType": "uint256",
          "name": "zeroValue",
          "type": "uint256"
        }
      ],
      "name": "GroupCreated",
      "type": "event"
    },
    {
      "anonymous": false,
      "inputs": [
        {
          "indexed": true,
          "internalType": "uint256",
          "name": "groupId",
          "type": "uint256"
        },
        {
          "indexed": false,
          "internalType": "uint256",
          "name": "index",
          "type": "uint256"
        },
        {
          "indexed": false,
          "internalType": "uint256",
          "name": "identityCommitment",
          "type": "uint256"
        },
        {
          "indexed": false,
          "internalType": "uint256",
          "name": "merkleTreeRoot",
          "type": "uint256"
        }
      ],
      "name": "MemberAdded",
      "type": "event"
    },
    {
      "anonymous": false,
      "inputs": [
        {
          "indexed": true,
          "internalType": "uint256",
          "name": "groupId",
          "type": "uint256"
        },
        {
          "indexed": false,
          "internalType": "uint256",
          "name": "index",
          "type": "uint256"
        },
        {
          "indexed": false,
          "internalType": "uint256",
          "name": "identityCommitment",
          "type": "uint256"
        },
        {
          "indexed": false,
          "internalType": "uint256",
          "name": "merkleTreeRoot",
          "type": "uint256"
        }
      ],
      "name": "MemberRemoved",
      "type": "event"
    },
    {
      "anonymous": false,
      "inputs": [
        {
          "indexed": true,
          "internalType": "uint256",
          "name": "groupId",
          "type": "uint256"
        },
        {
          "indexed": false,
          "internalType": "uint256",
          "name": "index",
          "type": "uint256"
        },
        {
          "indexed": false,
          "internalType": "uint256",
          "name": "identityCommitment",
          "type": "uint256"
        },
        {
          "indexed": false,
          "internalType": "uint256",
          "name": "newIdentityCommitment",
          "type": "uint256"
        },
        {
          "indexed": false,
          "internalType": "uint256",
          "name": "merkleTreeRoot",
          "type": "uint256"
        }
      ],
      "name": "MemberUpdated",
      "type": "event"
    },
    {
      "inputs": [
        {
          "internalType": "uint256",
          "name": "groupId",
          "type": "uint256"
        },
        {
          "internalType": "uint256",
          "name": "identityCommitment",
          "type": "uint256"
        }
      ],
      "name": "addMember",
      "outputs": [],
      "stateMutability": "nonpayable",
      "type": "function"
    },
    {
      "inputs": [
        {
          "internalType": "uint256",
          "name": "groupId",
          "type": "uint256"
        },
        {
          "internalType": "uint256",
          "name": "merkleTreeDepth",
          "type": "uint256"
        },
        {
          "internalType": "address",
          "name": "admin",
          "type": "address"
        }
      ],
      "name": "createGroup",
      "outputs": [],
      "stateMutability": "nonpayable",
      "type": "function"
    },
    {
      "inputs": [
        {
          "internalType": "uint256",
          "name": "groupId",
          "type": "uint256"
        }
      ],
      "name": "getMerkleTreeDepth",
      "outputs": [
        {
          "internalType": "uint256",
          "name": "",
          "type": "uint256"
        }
      ],
      "stateMutability": "view",
      "type": "function"
    },
    {
      "inputs": [
        {
          "internalType": "uint256",
          "name": "groupId",
          "type": "uint256"
        }
      ],
      "name": "getMerkleTreeRoot",
      "outputs": [
        {
          "internalType": "uint256",
          "name": "",
          "type": "uint256"
        }
      ],
      "stateMutability": "view",
      "type": "function"
    },
    {
      "inputs": [
        {
          "internalType": "uint256",
          "name": "groupId",
          "type": "uint256"
        }
      ],
      "name": "getNumberOfMerkleTreeLeaves",
      "outputs": [
        {
          "internalType": "uint256",
          "name": "",
          "type": "uint256"
        }
      ],
      "stateMutability": "view",
      "type": "function"
    },
    {
      "inputs": [
        {
          "internalType": "uint256",
          "name": "groupId",
          "type": "uint256"
        },
        {
          "internalType": "uint256",
          "name": "identityCommitment",
          "type": "uint256"
        },
        {
          "internalType": "uint256[]",
          "name": "proofSiblings",
          "type": "uint256[]"
        },
        {
          "internalType": "uint8[]",
          "name": "proofPathIndices",
          "type": "uint8[]"
        }
      ],
      "name": "removeMember",
      "outputs": [],
      "stateMutability": "nonpayable",
      "type": "function"
    },
    {
      "inputs": [
        {
          "internalType": "uint256",
          "name": "groupId",
          "type": "uint256"
        },
        {
          "internalType": "address",
          "name": "newAdmin",
          "type": "address"
        }
      ],
      "name": "updateGroupAdmin",
      "outputs": [],
      "stateMutability": "nonpayable",
      "type": "function"
    },
    {
      "inputs": [
        {
          "internalType": "uint256",
          "name": "groupId",
          "type": "uint256"
        },
        {
          "internalType": "uint256",
          "name": "identityCommitment",
          "type": "uint256"
        },
        {
          "internalType": "uint256",
          "name": "newIdentityCommitment",
          "type": "uint256"
        },
        {
          "internalType": "uint256[]",
          "name": "proofSiblings",
          "type": "uint256[]"
        },
        {
          "internalType": "uint8[]",
          "name": "proofPathIndices",
          "type": "uint8[]"
        }
      ],
      "name": "updateMember",
      "outputs": [],
      "stateMutability": "nonpayable",
      "type": "function"
    },
    {
      "inputs": [
        {
          "internalType": "uint256",
          "name": "rc",
          "type": "uint256"
        },
        {
          "internalType": "uint256",
          "name": "groupId",
          "type": "uint256"
        },
        {
          "internalType": "uint256[8]",
          "name": "proof",
          "type": "uint256[8]"
        }
      ],
      "name": "verifyProof",
      "outputs": [
        {
          "internalType": "bool",
          "name": "",
          "type": "bool"
        }
      ],
      "stateMutability": "view",
      "type": "function"
    }
  ],
  "bytecode": "0x60806040523480156200001157600080fd5b5060405162001f1238038062001f12833981810160405281019062000037919062000260565b60005b81518160ff1610156200013557818160ff168151811062000084577f4e487b7100000000000000000000000000000000000000000000000000000000600052603260045260246000fd5b60200260200101516000015160016000848460ff1681518110620000d1577f4e487b7100000000000000000000000000000000000000000000000000000000600052603260045260246000fd5b602002602001015160200151815260200190815260200160002060006101000a81548173ffffffffffffffffffffffffffffffffffffffff021916908373ffffffffffffffffffffffffffffffffffffffff1602179055508060010190506200003a565b5050620003e5565b6000620001546200014e84620002ce565b620002a5565b905080838252602082019050828560408602820111156200017457600080fd5b60005b85811015620001a857816200018d8882620001f6565b84526020840193506040830192505060018101905062000177565b5050509392505050565b600081519050620001c381620003b1565b92915050565b600082601f830112620001db57600080fd5b8151620001ed8482602086016200013d565b91505092915050565b6000604082840312156200020957600080fd5b620002156040620002a5565b905060006200022784828501620001b2565b60008301525060206200023d8482850162000249565b60208301525092915050565b6000815190506200025a81620003cb565b92915050565b6000602082840312156200027357600080fd5b600082015167ffffffffffffffff8111156200028e57600080fd5b6200029c84828501620001c9565b91505092915050565b6000620002b1620002c4565b9050620002bf82826200033b565b919050565b6000604051905090565b600067ffffffffffffffff821115620002ec57620002eb62000371565b5b602082029050602081019050919050565b60006200030a8262000311565b9050919050565b600073ffffffffffffffffffffffffffffffffffffffff82169050919050565b6000819050919050565b6200034682620003a0565b810181811067ffffffffffffffff8211171562000368576200036762000371565b5b80604052505050565b7f4e487b7100000000000000000000000000000000000000000000000000000000600052604160045260246000fd5b6000601f19601f8301169050919050565b620003bc81620002fd565b8114620003c857600080fd5b50565b620003d68162000331565b8114620003e257600080fd5b50565b611b1d80620003f56000396000f3fe608060405234801561001057600080fd5b50600436106100935760003560e01c80636389e107116100665780636389e1071461011c5780639c1121411461014c578063dabc4d5114610168578063ec45622a14610198578063f452ffa2146101b457610093565b80631783efc31461009857806343989f85146100b4578063568ee826146100d0578063638480be146100ec575b600080fd5b6100b260048036038101906100ad91906110e4565b6101e4565b005b6100ce60048036038101906100c991906111bf565b61029c565b005b6100ea60048036038101906100e591906110a8565b61035c565b005b6101066004803603810190610101919061107f565b61045c565b6040516101139190611748565b60405180910390f35b6101366004803603810190610131919061107f565b61047b565b6040516101439190611748565b60405180910390f35b61016660048036038101906101619190611120565b61049a565b005b610182600480360381019061017d919061107f565b61056a565b60405161018f9190611748565b60405180910390f35b6101b260048036038101906101ad919061125a565b610589565b005b6101ce60048036038101906101c9919061116f565b61064b565b6040516101db91906115f1565b60405180910390f35b816101ed610983565b73ffffffffffffffffffffffffffffffffffffffff166002600083815260200190815260200160002060009054906101000a900473ffffffffffffffffffffffffffffffffffffffff1673ffffffffffffffffffffffffffffffffffffffff161461028d576040517f08c379a00000000000000000000000000000000000000000000000000000000081526004016102849061160c565b60405180910390fd5b610297838361098b565b505050565b856102a5610983565b73ffffffffffffffffffffffffffffffffffffffff166002600083815260200190815260200160002060009054906101000a900473ffffffffffffffffffffffffffffffffffffffff1673ffffffffffffffffffffffffffffffffffffffff1614610345576040517f08c379a000000000000000000000000000000000000000000000000000000000815260040161033c9061160c565b60405180910390fd5b610353878787878787610ab2565b50505050505050565b81610365610983565b73ffffffffffffffffffffffffffffffffffffffff166002600083815260200190815260200160002060009054906101000a900473ffffffffffffffffffffffffffffffffffffffff1673ffffffffffffffffffffffffffffffffffffffff1614610405576040517f08c379a00000000000000000000000000000000000000000000000000000000081526004016103fc9061160c565b60405180910390fd5b816002600085815260200190815260200160002060006101000a81548173ffffffffffffffffffffffffffffffffffffffff021916908373ffffffffffffffffffffffffffffffffffffffff160217905550505050565b6000806000838152602001908152602001600020600201549050919050565b6000806000838152602001908152602001600020600001549050919050565b600073ffffffffffffffffffffffffffffffffffffffff166001600084815260200190815260200160002060009054906101000a900473ffffffffffffffffffffffffffffffffffffffff1673ffffffffffffffffffffffffffffffffffffffff16141561050757600080fd5b61051383836000610bda565b806002600085815260200190815260200160002060006101000a81548173ffffffffffffffffffffffffffffffffffffffff021916908373ffffffffffffffffffffffffffffffffffffffff160217905550505050565b6000806000838152602001908152602001600020600101549050919050565b86610592610983565b73ffffffffffffffffffffffffffffffffffffffff166002600083815260200190815260200160002060009054906101000a900473ffffffffffffffffffffffffffffffffffffffff1673ffffffffffffffffffffffffffffffffffffffff1614610632576040517f08c379a00000000000000000000000000000000000000000000000000000000081526004016106299061160c565b60405180910390fd5b61064188888888888888610d32565b5050505050505050565b6000806106578461047b565b905060006106648561056a565b905060006001600084815260200190815260200160002060009054906101000a900473ffffffffffffffffffffffffffffffffffffffff1690508073ffffffffffffffffffffffffffffffffffffffff1663f5c9d69e6040518060400160405280886000600881106106ff577f4e487b7100000000000000000000000000000000000000000000000000000000600052603260045260246000fd5b6020020135815260200188600160088110610743577f4e487b7100000000000000000000000000000000000000000000000000000000600052603260045260246000fd5b6020020135815250604051806040016040528060405180604001604052808b60026008811061079b577f4e487b7100000000000000000000000000000000000000000000000000000000600052603260045260246000fd5b602002013581526020018b6003600881106107df577f4e487b7100000000000000000000000000000000000000000000000000000000600052603260045260246000fd5b6020020135815250815260200160405180604001604052808b600460088110610831577f4e487b7100000000000000000000000000000000000000000000000000000000600052603260045260246000fd5b602002013581526020018b600560088110610875577f4e487b7100000000000000000000000000000000000000000000000000000000600052603260045260246000fd5b602002013581525081525060405180604001604052808a6006600881106108c5577f4e487b7100000000000000000000000000000000000000000000000000000000600052603260045260246000fd5b602002013581526020018a600760088110610909577f4e487b7100000000000000000000000000000000000000000000000000000000600052603260045260246000fd5b602002013581525060405180604001604052808d8152602001888152506040518563ffffffff1660e01b815260040161094594939291906115aa565b60006040518083038186803b15801561095d57600080fd5b505afa158015610971573d6000803e3d6000fd5b50505050600193505050509392505050565b600033905090565b60006109968361047b565b14156109ce576040517f029f057900000000000000000000000000000000000000000000000000000000815260040160405180910390fd5b60008083815260200190815260200160002073__$0c6eb7207c37accf1552a1c47686411ac0$__63168703fa9091836040518363ffffffff1660e01b8152600401610a1a92919061162c565b60006040518083038186803b158015610a3257600080fd5b505af4158015610a46573d6000803e3d6000fd5b505050506000610a558361056a565b905060006001610a648561045c565b610a6e919061197e565b9050837f19239b3f93cd10558aaf11423af70c77763bf54f52bcc75bfa74d4d13548cde9828585604051610aa49392919061178c565b60405180910390a250505050565b6000610abd8761056a565b1415610af5576040517f029f057900000000000000000000000000000000000000000000000000000000815260040160405180910390fd5b60008087815260200190815260200160002073__$0c6eb7207c37accf1552a1c47686411ac0$__630629596f909187878787876040518763ffffffff1660e01b8152600401610b4996959493929190611655565b60006040518083038186803b158015610b6157600080fd5b505af4158015610b75573d6000803e3d6000fd5b505050506000610b848761056a565b90506000610b928484610e5f565b9050877f3108849c053c77b8073a11256dffb5ffd5b55e93e105a355e1c9061db890d871828985604051610bc89392919061178c565b60405180910390a25050505050505050565b7f30644e72e131a029b85045b68181585d2833e84879b9709143e1f593f00000018310610c33576040517fa61c78ca00000000000000000000000000000000000000000000000000000000815260040160405180910390fd5b6000610c3e8461047b565b14610c75576040517f8121725b00000000000000000000000000000000000000000000000000000000815260040160405180910390fd5b60008084815260200190815260200160002073__$0c6eb7207c37accf1552a1c47686411ac0$__631095fbb4909184846040518463ffffffff1660e01b8152600401610cc3939291906116ac565b60006040518083038186803b158015610cdb57600080fd5b505af4158015610cef573d6000803e3d6000fd5b50505050827f0d000126c26c1bbe400fd2332187f75d58b69306f9ec47b408686189d3a008338383604051610d25929190611763565b60405180910390a2505050565b6000610d3d8861056a565b1415610d75576040517f029f057900000000000000000000000000000000000000000000000000000000815260040160405180910390fd5b60008088815260200190815260200160002073__$0c6eb7207c37accf1552a1c47686411ac0$__63a547882790918888888888886040518863ffffffff1660e01b8152600401610dcb97969594939291906116e3565b60006040518083038186803b158015610de357600080fd5b505af4158015610df7573d6000803e3d6000fd5b505050506000610e068861056a565b90506000610e148484610e5f565b9050887fea3588e4a2a0c93d6a0e69dfeaf7496f43ccccf02ad9ce0a5b7627cbca4b61b1828a8a86604051610e4c94939291906117c3565b60405180910390a2505050505050505050565b6000806000905060008484905090505b60008160ff161115610f83576000821180610eea575060008585600184610e9691906119b2565b60ff16818110610ecf577f4e487b7100000000000000000000000000000000000000000000000000000000600052603260045260246000fd5b9050602002016020810190610ee4919061130a565b60ff1614155b15610f7757600282610efc9190611924565b915060018585600184610f0f91906119b2565b60ff16818110610f48577f4e487b7100000000000000000000000000000000000000000000000000000000600052603260045260246000fd5b9050602002016020810190610f5d919061130a565b60ff161415610f7657600182610f7391906118ce565b91505b5b80600190039050610e6f565b508091505092915050565b600081359050610f9d81611aa2565b92915050565b600081905082602060080282011115610fbb57600080fd5b92915050565b60008083601f840112610fd357600080fd5b8235905067ffffffffffffffff811115610fec57600080fd5b60208301915083602082028301111561100457600080fd5b9250929050565b60008083601f84011261101d57600080fd5b8235905067ffffffffffffffff81111561103657600080fd5b60208301915083602082028301111561104e57600080fd5b9250929050565b60008135905061106481611ab9565b92915050565b60008135905061107981611ad0565b92915050565b60006020828403121561109157600080fd5b600061109f84828501611055565b91505092915050565b600080604083850312156110bb57600080fd5b60006110c985828601611055565b92505060206110da85828601610f8e565b9150509250929050565b600080604083850312156110f757600080fd5b600061110585828601611055565b925050602061111685828601611055565b9150509250929050565b60008060006060848603121561113557600080fd5b600061114386828701611055565b935050602061115486828701611055565b925050604061116586828701610f8e565b9150509250925092565b6000806000610140848603121561118557600080fd5b600061119386828701611055565b93505060206111a486828701611055565b92505060406111b586828701610fa3565b9150509250925092565b600080600080600080608087890312156111d857600080fd5b60006111e689828a01611055565b96505060206111f789828a01611055565b955050604087013567ffffffffffffffff81111561121457600080fd5b61122089828a01610fc1565b9450945050606087013567ffffffffffffffff81111561123f57600080fd5b61124b89828a0161100b565b92509250509295509295509295565b600080600080600080600060a0888a03121561127557600080fd5b60006112838a828b01611055565b97505060206112948a828b01611055565b96505060406112a58a828b01611055565b955050606088013567ffffffffffffffff8111156112c257600080fd5b6112ce8a828b01610fc1565b9450945050608088013567ffffffffffffffff8111156112ed57600080fd5b6112f98a828b0161100b565b925092505092959891949750929550565b60006020828403121561131c57600080fd5b600061132a8482850161106a565b91505092915050565b600061133f83836113d2565b60408301905092915050565b6000611357838361156e565b60208301905092915050565b600061136f838361159b565b60208301905092915050565b61138481611826565b61138e8184611863565b925061139982611808565b8060005b838110156113ca5781516113b18782611333565b96506113bc8361183c565b92505060018101905061139d565b505050505050565b6113db81611831565b6113e5818461186e565b92506113f082611812565b8060005b83811015611421578151611408878261134b565b965061141383611849565b9250506001810190506113f4565b505050505050565b61143281611831565b61143c8184611879565b925061144782611812565b8060005b8381101561147857815161145f878261134b565b965061146a83611849565b92505060018101905061144b565b505050505050565b600061148c8385611884565b93507f07ffffffffffffffffffffffffffffffffffffffffffffffffffffffffffffff8311156114bb57600080fd5b6020830292506114cc838584611a3b565b82840190509392505050565b60006114e48385611895565b93506114ef8261181c565b8060005b858110156115285761150582846118b7565b61150f8882611363565b975061151a83611856565b9250506001810190506114f3565b5085925050509392505050565b61153e816119f8565b82525050565b6000611551600b836118a6565b915061155c82611a79565b602082019050919050565b8082525050565b61157781611a24565b82525050565b61158681611a24565b82525050565b61159581611a24565b82525050565b6115a481611a2e565b82525050565b6000610140820190506115c06000830187611429565b6115cd604083018661137b565b6115da60c0830185611429565b6115e8610100830184611429565b95945050505050565b60006020820190506116066000830184611535565b92915050565b6000602082019050818103600083015261162581611544565b9050919050565b60006040820190506116416000830185611567565b61164e602083018461158c565b9392505050565b600060808201905061166a6000830189611567565b611677602083018861158c565b818103604083015261168a818688611480565b9050818103606083015261169f8184866114d8565b9050979650505050505050565b60006060820190506116c16000830186611567565b6116ce602083018561158c565b6116db604083018461158c565b949350505050565b600060a0820190506116f8600083018a611567565b611705602083018961158c565b611712604083018861158c565b8181036060830152611725818688611480565b9050818103608083015261173a8184866114d8565b905098975050505050505050565b600060208201905061175d600083018461157d565b92915050565b6000604082019050611778600083018561157d565b611785602083018461157d565b9392505050565b60006060820190506117a1600083018661157d565b6117ae602083018561157d565b6117bb604083018461157d565b949350505050565b60006080820190506117d8600083018761157d565b6117e5602083018661157d565b6117f2604083018561157d565b6117ff606083018461157d565b95945050505050565b6000819050919050565b6000819050919050565b6000819050919050565b600060029050919050565b600060029050919050565b6000602082019050919050565b6000602082019050919050565b6000602082019050919050565b600081905092915050565b600081905092915050565b600081905092915050565b600082825260208201905092915050565b600082825260208201905092915050565b600082825260208201905092915050565b60006118c6602084018461106a565b905092915050565b60006118d982611a24565b91506118e483611a24565b9250827fffffffffffffffffffffffffffffffffffffffffffffffffffffffffffffffff0382111561191957611918611a4a565b5b828201905092915050565b600061192f82611a24565b915061193a83611a24565b9250817fffffffffffffffffffffffffffffffffffffffffffffffffffffffffffffffff048311821515161561197357611972611a4a565b5b828202905092915050565b600061198982611a24565b915061199483611a24565b9250828210156119a7576119a6611a4a565b5b828203905092915050565b60006119bd82611a2e565b91506119c883611a2e565b9250828210156119db576119da611a4a565b5b828203905092915050565b60006119f182611a04565b9050919050565b60008115159050919050565b600073ffffffffffffffffffffffffffffffffffffffff82169050919050565b6000819050919050565b600060ff82169050919050565b82818337600083830152505050565b7f4e487b7100000000000000000000000000000000000000000000000000000000600052601160045260246000fd5b7f6f6e6c792041646d696e21000000000000000000000000000000000000000000600082015250565b611aab816119e6565b8114611ab657600080fd5b50565b611ac281611a24565b8114611acd57600080fd5b50565b611ad981611a2e565b8114611ae457600080fd5b5056fea26469706673582212205f2aff4788c8b124894540bfbf1bddea96193f8f3ac5a3c03feff7868164c39164736f6c63430008040033",
  "linkReferences": {
    "@zk-kit/incremental-merkle-tree.sol/IncrementalBinaryTree.sol": {
      "IncrementalBinaryTree": [
        {
          "length": 20,
          "start": 3543
        },
        {
          "length": 20,
          "start": 3838
        },
        {
          "length": 20,
          "start": 4222
        },
        {
          "length": 20,
          "start": 4478
        }
      ]
    }
  },
  "deployedLinkReferences": {
    "@zk-kit/incremental-merkle-tree.sol/IncrementalBinaryTree.sol": {
      "IncrementalBinaryTree": [
        {
          "length": 20,
          "start": 2530
        },
        {
          "length": 20,
          "start": 2825
        },
        {
          "length": 20,
          "start": 3209
        },
        {
          "length": 20,
          "start": 3465
        }
      ]
    }
  }
}