{
  "_format": "hh-sol-artifact-1",
  "contractName": "voteNFT",
  "sourceName": "contracts/voting/Nft.sol",
  "abi": [
    {
      "inputs": [
        {
          "internalType": "string",
          "name": "name",
          "type": "string"
        },
        {
          "internalType": "string",
          "name": "symbol",
          "type": "string"
        }
      ],
      "stateMutability": "nonpayable",
      "type": "constructor"
    },
    {
      "anonymous": false,
      "inputs": [
        {
          "indexed": true,
          "internalType": "address",
          "name": "owner",
          "type": "address"
        },
        {
          "indexed": true,
          "internalType": "address",
          "name": "approved",
          "type": "address"
        },
        {
          "indexed": true,
          "internalType": "uint256",
          "name": "tokenId",
          "type": "uint256"
        }
      ],
      "name": "Approval",
      "type": "event"
    },
    {
      "anonymous": false,
      "inputs": [
        {
          "indexed": true,
          "internalType": "address",
          "name": "owner",
          "type": "address"
        },
        {
          "indexed": true,
          "internalType": "address",
          "name": "operator",
          "type": "address"
        },
        {
          "indexed": false,
          "internalType": "bool",
          "name": "approved",
          "type": "bool"
        }
      ],
      "name": "ApprovalForAll",
      "type": "event"
    },
    {
      "anonymous": false,
      "inputs": [
        {
          "indexed": true,
          "internalType": "address",
          "name": "from",
          "type": "address"
        },
        {
          "indexed": true,
          "internalType": "address",
          "name": "to",
          "type": "address"
        },
        {
          "indexed": true,
          "internalType": "uint256",
          "name": "tokenId",
          "type": "uint256"
        }
      ],
      "name": "Transfer",
      "type": "event"
    },
    {
      "inputs": [
        {
          "internalType": "address",
          "name": "to",
          "type": "address"
        },
        {
          "internalType": "uint256",
          "name": "tokenId",
          "type": "uint256"
        }
      ],
      "name": "approve",
      "outputs": [],
      "stateMutability": "nonpayable",
      "type": "function"
    },
    {
      "inputs": [
        {
          "internalType": "address",
          "name": "owner",
          "type": "address"
        }
      ],
      "name": "balanceOf",
      "outputs": [
        {
          "internalType": "uint256",
          "name": "",
          "type": "uint256"
        }
      ],
      "stateMutability": "view",
      "type": "function"
    },
    {
      "inputs": [
        {
          "internalType": "uint256",
          "name": "tokenId",
          "type": "uint256"
        }
      ],
      "name": "getApproved",
      "outputs": [
        {
          "internalType": "address",
          "name": "",
          "type": "address"
        }
      ],
      "stateMutability": "view",
      "type": "function"
    },
    {
      "inputs": [
        {
          "internalType": "address",
          "name": "owner",
          "type": "address"
        },
        {
          "internalType": "address",
          "name": "operator",
          "type": "address"
        }
      ],
      "name": "isApprovedForAll",
      "outputs": [
        {
          "internalType": "bool",
          "name": "",
          "type": "bool"
        }
      ],
      "stateMutability": "view",
      "type": "function"
    },
    {
      "inputs": [],
      "name": "mint",
      "outputs": [],
      "stateMutability": "nonpayable",
      "type": "function"
    },
    {
      "inputs": [],
      "name": "mint_id",
      "outputs": [
        {
          "internalType": "uint256",
          "name": "",
          "type": "uint256"
        }
      ],
      "stateMutability": "view",
      "type": "function"
    },
    {
      "inputs": [],
      "name": "name",
      "outputs": [
        {
          "internalType": "string",
          "name": "",
          "type": "string"
        }
      ],
      "stateMutability": "view",
      "type": "function"
    },
    {
      "inputs": [
        {
          "internalType": "uint256",
          "name": "tokenId",
          "type": "uint256"
        }
      ],
      "name": "ownerOf",
      "outputs": [
        {
          "internalType": "address",
          "name": "",
          "type": "address"
        }
      ],
      "stateMutability": "view",
      "type": "function"
    },
    {
      "inputs": [
        {
          "internalType": "address",
          "name": "from",
          "type": "address"
        },
        {
          "internalType": "address",
          "name": "to",
          "type": "address"
        },
        {
          "internalType": "uint256",
          "name": "tokenId",
          "type": "uint256"
        }
      ],
      "name": "safeTransferFrom",
      "outputs": [],
      "stateMutability": "nonpayable",
      "type": "function"
    },
    {
      "inputs": [
        {
          "internalType": "address",
          "name": "from",
          "type": "address"
        },
        {
          "internalType": "address",
          "name": "to",
          "type": "address"
        },
        {
          "internalType": "uint256",
          "name": "tokenId",
          "type": "uint256"
        },
        {
          "internalType": "bytes",
          "name": "data",
          "type": "bytes"
        }
      ],
      "name": "safeTransferFrom",
      "outputs": [],
      "stateMutability": "nonpayable",
      "type": "function"
    },
    {
      "inputs": [
        {
          "internalType": "address",
          "name": "operator",
          "type": "address"
        },
        {
          "internalType": "bool",
          "name": "approved",
          "type": "bool"
        }
      ],
      "name": "setApprovalForAll",
      "outputs": [],
      "stateMutability": "nonpayable",
      "type": "function"
    },
    {
      "inputs": [
        {
          "internalType": "bytes4",
          "name": "interfaceId",
          "type": "bytes4"
        }
      ],
      "name": "supportsInterface",
      "outputs": [
        {
          "internalType": "bool",
          "name": "",
          "type": "bool"
        }
      ],
      "stateMutability": "view",
      "type": "function"
    },
    {
      "inputs": [],
      "name": "symbol",
      "outputs": [
        {
          "internalType": "string",
          "name": "",
          "type": "string"
        }
      ],
      "stateMutability": "view",
      "type": "function"
    },
    {
      "inputs": [
        {
          "internalType": "uint256",
          "name": "tokenId",
          "type": "uint256"
        }
      ],
      "name": "tokenURI",
      "outputs": [
        {
          "internalType": "string",
          "name": "",
          "type": "string"
        }
      ],
      "stateMutability": "view",
      "type": "function"
    },
    {
      "inputs": [
        {
          "internalType": "address",
          "name": "from",
          "type": "address"
        },
        {
          "internalType": "address",
          "name": "to",
          "type": "address"
        },
        {
          "internalType": "uint256",
          "name": "tokenId",
          "type": "uint256"
        }
      ],
      "name": "transferFrom",
      "outputs": [],
      "stateMutability": "nonpayable",
      "type": "function"
    }
  ],
  "bytecode": "0x608060405260006006553480156200001657600080fd5b50604051620016d1380380620016d18339810160408190526200003991620001e6565b8151829082906200005290600090602085019062000073565b5080516200006890600190602084019062000073565b50505050506200028d565b828054620000819062000250565b90600052602060002090601f016020900481019282620000a55760008555620000f0565b82601f10620000c057805160ff1916838001178555620000f0565b82800160010185558215620000f0579182015b82811115620000f0578251825591602001919060010190620000d3565b50620000fe92915062000102565b5090565b5b80821115620000fe576000815560010162000103565b634e487b7160e01b600052604160045260246000fd5b600082601f8301126200014157600080fd5b81516001600160401b03808211156200015e576200015e62000119565b604051601f8301601f19908116603f0116810190828211818310171562000189576200018962000119565b81604052838152602092508683858801011115620001a657600080fd5b600091505b83821015620001ca5785820183015181830184015290820190620001ab565b83821115620001dc5760008385830101525b9695505050505050565b60008060408385031215620001fa57600080fd5b82516001600160401b03808211156200021257600080fd5b62000220868387016200012f565b935060208501519150808211156200023757600080fd5b5062000246858286016200012f565b9150509250929050565b600181811c908216806200026557607f821691505b602082108114156200028757634e487b7160e01b600052602260045260246000fd5b50919050565b611434806200029d6000396000f3fe608060405234801561001057600080fd5b50600436106100f55760003560e01c80636352211e11610097578063b88d4fde11610066578063b88d4fde146101f4578063c87b56dd14610207578063e132a1221461021a578063e985e9c51461022357600080fd5b80636352211e146101a557806370a08231146101b857806395d89b41146101d9578063a22cb465146101e157600080fd5b8063095ea7b3116100d3578063095ea7b3146101625780631249c58b1461017757806323b872dd1461017f57806342842e0e1461019257600080fd5b806301ffc9a7146100fa57806306fdde0314610122578063081812fc14610137575b600080fd5b61010d610108366004610f57565b61025f565b60405190151581526020015b60405180910390f35b61012a6102b1565b6040516101199190610fcc565b61014a610145366004610fdf565b610343565b6040516001600160a01b039091168152602001610119565b610175610170366004611014565b61036a565b005b610175610485565b61017561018d36600461103e565b6104ef565b6101756101a036600461103e565b610520565b61014a6101b3366004610fdf565b61053b565b6101cb6101c636600461107a565b61059b565b604051908152602001610119565b61012a610621565b6101756101ef366004611095565b610630565b6101756102023660046110e7565b61063f565b61012a610215366004610fdf565b610677565b6101cb60065481565b61010d6102313660046111c3565b6001600160a01b03918216600090815260056020908152604080832093909416825291909152205460ff1690565b60006001600160e01b031982166380ac58cd60e01b148061029057506001600160e01b03198216635b5e139f60e01b145b806102ab57506301ffc9a760e01b6001600160e01b03198316145b92915050565b6060600080546102c0906111f6565b80601f01602080910402602001604051908101604052809291908181526020018280546102ec906111f6565b80156103395780601f1061030e57610100808354040283529160200191610339565b820191906000526020600020905b81548152906001019060200180831161031c57829003601f168201915b5050505050905090565b600061034e826106eb565b506000908152600460205260409020546001600160a01b031690565b60006103758261053b565b9050806001600160a01b0316836001600160a01b031614156103e85760405162461bcd60e51b815260206004820152602160248201527f4552433732313a20617070726f76616c20746f2063757272656e74206f776e656044820152603960f91b60648201526084015b60405180910390fd5b336001600160a01b038216148061040457506104048133610231565b6104765760405162461bcd60e51b815260206004820152603d60248201527f4552433732313a20617070726f76652063616c6c6572206973206e6f7420746f60448201527f6b656e206f776e6572206f7220617070726f76656420666f7220616c6c00000060648201526084016103df565b610480838361074d565b505050565b612710600654106104ce5760405162461bcd60e51b81526020600482015260136024820152721b5a5b9d17da59080f8f4813505617d3525395606a1b60448201526064016103df565b600680546104ed9133919060006104e483611247565b919050556107bb565b565b6104f93382610954565b6105155760405162461bcd60e51b81526004016103df90611262565b6104808383836109d3565b6104808383836040518060200160405280600081525061063f565b6000818152600260205260408120546001600160a01b0316806102ab5760405162461bcd60e51b8152602060048201526018602482015277115490cdcc8c4e881a5b9d985b1a59081d1bdad95b88125160421b60448201526064016103df565b60006001600160a01b0382166106055760405162461bcd60e51b815260206004820152602960248201527f4552433732313a2061646472657373207a65726f206973206e6f7420612076616044820152683634b21037bbb732b960b91b60648201526084016103df565b506001600160a01b031660009081526003602052604090205490565b6060600180546102c0906111f6565b61063b338383610b44565b5050565b6106493383610954565b6106655760405162461bcd60e51b81526004016103df90611262565b61067184848484610c13565b50505050565b6060610682826106eb565b600061069960408051602081019091526000815290565b905060008151116106b957604051806020016040528060008152506106e4565b806106c384610c46565b6040516020016106d49291906112af565b6040516020818303038152906040525b9392505050565b6000818152600260205260409020546001600160a01b031661074a5760405162461bcd60e51b8152602060048201526018602482015277115490cdcc8c4e881a5b9d985b1a59081d1bdad95b88125160421b60448201526064016103df565b50565b600081815260046020526040902080546001600160a01b0319166001600160a01b03841690811790915581906107828261053b565b6001600160a01b03167f8c5be1e5ebec7d5bd14f71427d1e84f3dd0314c0f7b2291e5b200ac8c7c3b92560405160405180910390a45050565b6001600160a01b0382166108115760405162461bcd60e51b815260206004820181905260248201527f4552433732313a206d696e7420746f20746865207a65726f206164647265737360448201526064016103df565b6000818152600260205260409020546001600160a01b0316156108765760405162461bcd60e51b815260206004820152601c60248201527f4552433732313a20746f6b656e20616c7265616479206d696e7465640000000060448201526064016103df565b610884600083836001610ce3565b6000818152600260205260409020546001600160a01b0316156108e95760405162461bcd60e51b815260206004820152601c60248201527f4552433732313a20746f6b656e20616c7265616479206d696e7465640000000060448201526064016103df565b6001600160a01b038216600081815260036020908152604080832080546001019055848352600290915280822080546001600160a01b0319168417905551839291907fddf252ad1be2c89b69c2b068fc378daa952ba7f163c4a11628f55a4df523b3ef908290a45050565b6000806109608361053b565b9050806001600160a01b0316846001600160a01b031614806109a757506001600160a01b0380821660009081526005602090815260408083209388168352929052205460ff165b806109cb5750836001600160a01b03166109c084610343565b6001600160a01b0316145b949350505050565b826001600160a01b03166109e68261053b565b6001600160a01b031614610a0c5760405162461bcd60e51b81526004016103df906112de565b6001600160a01b038216610a6e5760405162461bcd60e51b8152602060048201526024808201527f4552433732313a207472616e7366657220746f20746865207a65726f206164646044820152637265737360e01b60648201526084016103df565b610a7b8383836001610ce3565b826001600160a01b0316610a8e8261053b565b6001600160a01b031614610ab45760405162461bcd60e51b81526004016103df906112de565b600081815260046020908152604080832080546001600160a01b03199081169091556001600160a01b0387811680865260038552838620805460001901905590871680865283862080546001019055868652600290945282852080549092168417909155905184937fddf252ad1be2c89b69c2b068fc378daa952ba7f163c4a11628f55a4df523b3ef91a4505050565b816001600160a01b0316836001600160a01b03161415610ba65760405162461bcd60e51b815260206004820152601960248201527f4552433732313a20617070726f766520746f2063616c6c65720000000000000060448201526064016103df565b6001600160a01b03838116600081815260056020908152604080832094871680845294825291829020805460ff191686151590811790915591519182527f17307eab39ab6107e8899845ad3d59bd9653f200f220920489ca2b5937696c31910160405180910390a3505050565b610c1e8484846109d3565b610c2a84848484610d6b565b6106715760405162461bcd60e51b81526004016103df90611323565b60606000610c5383610e69565b600101905060008167ffffffffffffffff811115610c7357610c736110d1565b6040519080825280601f01601f191660200182016040528015610c9d576020820181803683370190505b5090508181016020015b600019016f181899199a1a9b1b9c1cb0b131b232b360811b600a86061a8153600a8504945084610cd657610cdb565b610ca7565b509392505050565b6001811115610671576001600160a01b03841615610d29576001600160a01b03841660009081526003602052604081208054839290610d23908490611375565b90915550505b6001600160a01b03831615610671576001600160a01b03831660009081526003602052604081208054839290610d6090849061138c565b909155505050505050565b60006001600160a01b0384163b15610e5e57604051630a85bd0160e11b81526001600160a01b0385169063150b7a0290610daf9033908990889088906004016113a4565b6020604051808303816000875af1925050508015610dea575060408051601f3d908101601f19168201909252610de7918101906113e1565b60015b610e44573d808015610e18576040519150601f19603f3d011682016040523d82523d6000602084013e610e1d565b606091505b508051610e3c5760405162461bcd60e51b81526004016103df90611323565b805181602001fd5b6001600160e01b031916630a85bd0160e11b1490506109cb565b506001949350505050565b60008072184f03e93ff9f4daa797ed6e38ed64bf6a1f0160401b8310610ea85772184f03e93ff9f4daa797ed6e38ed64bf6a1f0160401b830492506040015b6d04ee2d6d415b85acef81000000008310610ed4576d04ee2d6d415b85acef8100000000830492506020015b662386f26fc100008310610ef257662386f26fc10000830492506010015b6305f5e1008310610f0a576305f5e100830492506008015b6127108310610f1e57612710830492506004015b60648310610f30576064830492506002015b600a83106102ab5760010192915050565b6001600160e01b03198116811461074a57600080fd5b600060208284031215610f6957600080fd5b81356106e481610f41565b60005b83811015610f8f578181015183820152602001610f77565b838111156106715750506000910152565b60008151808452610fb8816020860160208601610f74565b601f01601f19169290920160200192915050565b6020815260006106e46020830184610fa0565b600060208284031215610ff157600080fd5b5035919050565b80356001600160a01b038116811461100f57600080fd5b919050565b6000806040838503121561102757600080fd5b61103083610ff8565b946020939093013593505050565b60008060006060848603121561105357600080fd5b61105c84610ff8565b925061106a60208501610ff8565b9150604084013590509250925092565b60006020828403121561108c57600080fd5b6106e482610ff8565b600080604083850312156110a857600080fd5b6110b183610ff8565b9150602083013580151581146110c657600080fd5b809150509250929050565b634e487b7160e01b600052604160045260246000fd5b600080600080608085870312156110fd57600080fd5b61110685610ff8565b935061111460208601610ff8565b925060408501359150606085013567ffffffffffffffff8082111561113857600080fd5b818701915087601f83011261114c57600080fd5b81358181111561115e5761115e6110d1565b604051601f8201601f19908116603f01168101908382118183101715611186576111866110d1565b816040528281528a602084870101111561119f57600080fd5b82602086016020830137600060208483010152809550505050505092959194509250565b600080604083850312156111d657600080fd5b6111df83610ff8565b91506111ed60208401610ff8565b90509250929050565b600181811c9082168061120a57607f821691505b6020821081141561122b57634e487b7160e01b600052602260045260246000fd5b50919050565b634e487b7160e01b600052601160045260246000fd5b600060001982141561125b5761125b611231565b5060010190565b6020808252602d908201527f4552433732313a2063616c6c6572206973206e6f7420746f6b656e206f776e6560408201526c1c881bdc88185c1c1c9bdd9959609a1b606082015260800190565b600083516112c1818460208801610f74565b8351908301906112d5818360208801610f74565b01949350505050565b60208082526025908201527f4552433732313a207472616e736665722066726f6d20696e636f72726563742060408201526437bbb732b960d91b606082015260800190565b60208082526032908201527f4552433732313a207472616e7366657220746f206e6f6e20455243373231526560408201527131b2b4bb32b91034b6b83632b6b2b73a32b960711b606082015260800190565b60008282101561138757611387611231565b500390565b6000821982111561139f5761139f611231565b500190565b6001600160a01b03858116825284166020820152604081018390526080606082018190526000906113d790830184610fa0565b9695505050505050565b6000602082840312156113f357600080fd5b81516106e481610f4156fea2646970667358221220df8e3ddbbbfe78d4746407e47424daf75f81c875cd72faf359fb81ff05223fb964736f6c634300080c0033",
  "linkReferences": {},
  "deployedLinkReferences": {}
}