{
  "_format": "hh-sol-artifact-1",
  "contractName": "Vote",
  "sourceName": "contracts/voting/vote.sol",
  "abi": [
    {
      "anonymous": false,
      "inputs": [
        {
          "indexed": true,
          "internalType": "uint256",
          "name": "groupId",
          "type": "uint256"
        },
        {
          "indexed": false,
          "internalType": "string",
          "name": "name",
          "type": "string"
        },
        {
          "indexed": false,
          "internalType": "string",
          "name": "desc",
          "type": "string"
        },
        {
          "indexed": false,
          "internalType": "string",
          "name": "icon",
          "type": "string"
        },
        {
          "indexed": false,
          "internalType": "enum Vote.PRIVACY",
          "name": "privacy",
          "type": "uint8"
        },
        {
          "indexed": false,
          "internalType": "address",
          "name": "asset",
          "type": "address"
        }
      ],
      "name": "GroupInfo",
      "type": "event"
    },
    {
      "anonymous": false,
      "inputs": [
        {
          "indexed": true,
          "internalType": "uint256",
          "name": "groupId",
          "type": "uint256"
        },
        {
          "indexed": true,
          "internalType": "uint256",
          "name": "identityCommitment",
          "type": "uint256"
        }
      ],
      "name": "JoinRequested",
      "type": "event"
    },
    {
      "anonymous": false,
      "inputs": [
        {
          "indexed": true,
          "internalType": "uint256",
          "name": "groupId",
          "type": "uint256"
        },
        {
          "indexed": true,
          "internalType": "uint256",
          "name": "identityCommitment",
          "type": "uint256"
        }
      ],
      "name": "MemberAdded",
      "type": "event"
    },
    {
      "anonymous": false,
      "inputs": [
        {
          "indexed": true,
          "internalType": "uint256",
          "name": "groupId",
          "type": "uint256"
        },
        {
          "indexed": true,
          "internalType": "uint256",
          "name": "pollId",
          "type": "uint256"
        },
        {
          "indexed": false,
          "internalType": "string",
          "name": "title",
          "type": "string"
        },
        {
          "indexed": false,
          "internalType": "string[]",
          "name": "voteMsgs",
          "type": "string[]"
        },
        {
          "indexed": false,
          "internalType": "string",
          "name": "desc",
          "type": "string"
        }
      ],
      "name": "PollAdded",
      "type": "event"
    },
    {
      "anonymous": false,
      "inputs": [
        {
          "indexed": true,
          "internalType": "uint256",
          "name": "groupId",
          "type": "uint256"
        },
        {
          "indexed": true,
          "internalType": "uint256",
          "name": "poolId",
          "type": "uint256"
        },
        {
          "indexed": false,
          "internalType": "string",
          "name": "voteMsg",
          "type": "string"
        }
      ],
      "name": "PoolVoteAdded",
      "type": "event"
    },
    {
      "anonymous": false,
      "inputs": [
        {
          "indexed": true,
          "internalType": "uint256",
          "name": "groupId",
          "type": "uint256"
        },
        {
          "indexed": false,
          "internalType": "bytes32",
          "name": "voteMsg",
          "type": "bytes32"
        }
      ],
      "name": "VoteAdded",
      "type": "event"
    },
    {
      "inputs": [
        {
          "internalType": "uint256",
          "name": "merkleTreeDepth",
          "type": "uint256"
        },
        {
          "internalType": "address",
          "name": "admin",
          "type": "address"
        },
        {
          "internalType": "string",
          "name": "name",
          "type": "string"
        },
        {
          "internalType": "string",
          "name": "description",
          "type": "string"
        },
        {
          "internalType": "string",
          "name": "privacy",
          "type": "string"
        },
        {
          "internalType": "string",
          "name": "icon",
          "type": "string"
        }
      ],
      "name": "CreateGroupExtra",
      "outputs": [
        {
          "internalType": "uint256",
          "name": "groupId",
          "type": "uint256"
        }
      ],
      "stateMutability": "nonpayable",
      "type": "function"
    },
    {
      "inputs": [
        {
          "internalType": "uint256",
          "name": "merkleTreeDepth",
          "type": "uint256"
        },
        {
          "internalType": "address",
          "name": "admin",
          "type": "address"
        },
        {
          "internalType": "string",
          "name": "name",
          "type": "string"
        },
        {
          "internalType": "string",
          "name": "description",
          "type": "string"
        },
        {
          "internalType": "enum Vote.PRIVACY",
          "name": "privacy",
          "type": "uint8"
        },
        {
          "internalType": "string",
          "name": "icon",
          "type": "string"
        },
        {
          "internalType": "address",
          "name": "asset",
          "type": "address"
        }
      ],
      "name": "CreateGroupWithAssetDemand",
      "outputs": [
        {
          "internalType": "uint256",
          "name": "groupId",
          "type": "uint256"
        }
      ],
      "stateMutability": "nonpayable",
      "type": "function"
    },
    {
      "inputs": [],
      "name": "GROUP_ID",
      "outputs": [
        {
          "internalType": "uint256",
          "name": "",
          "type": "uint256"
        }
      ],
      "stateMutability": "view",
      "type": "function"
    },
    {
      "inputs": [
        {
          "internalType": "uint256",
          "name": "groupId",
          "type": "uint256"
        },
        {
          "internalType": "uint256",
          "name": "identityCommitment",
          "type": "uint256"
        }
      ],
      "name": "JoinRequest",
      "outputs": [],
      "stateMutability": "nonpayable",
      "type": "function"
    },
    {
      "inputs": [
        {
          "internalType": "uint256",
          "name": "groupId",
          "type": "uint256"
        },
        {
          "internalType": "uint256",
          "name": "identityCommitment",
          "type": "uint256"
        }
      ],
      "name": "addMember",
      "outputs": [],
      "stateMutability": "nonpayable",
      "type": "function"
    },
    {
      "inputs": [
        {
          "internalType": "uint256",
          "name": "",
          "type": "uint256"
        }
      ],
      "name": "admins",
      "outputs": [
        {
          "internalType": "address",
          "name": "",
          "type": "address"
        }
      ],
      "stateMutability": "view",
      "type": "function"
    },
    {
      "inputs": [
        {
          "internalType": "uint256",
          "name": "groupId",
          "type": "uint256"
        }
      ],
      "name": "checkPrivacy",
      "outputs": [],
      "stateMutability": "nonpayable",
      "type": "function"
    },
    {
      "inputs": [
        {
          "internalType": "uint256",
          "name": "merkleTreeDepth",
          "type": "uint256"
        },
        {
          "internalType": "address",
          "name": "admin",
          "type": "address"
        }
      ],
      "name": "createGroup",
      "outputs": [
        {
          "internalType": "uint256",
          "name": "",
          "type": "uint256"
        }
      ],
      "stateMutability": "nonpayable",
      "type": "function"
    },
    {
      "inputs": [
        {
          "internalType": "uint256",
          "name": "groupId",
          "type": "uint256"
        },
        {
          "internalType": "string[]",
          "name": "voteMsgs",
          "type": "string[]"
        },
        {
          "internalType": "string",
          "name": "title",
          "type": "string"
        },
        {
          "internalType": "string",
          "name": "desc",
          "type": "string"
        }
      ],
      "name": "createPollInGroup",
      "outputs": [
        {
          "internalType": "uint256",
          "name": "pollId",
          "type": "uint256"
        }
      ],
      "stateMutability": "nonpayable",
      "type": "function"
    },
    {
      "inputs": [],
      "name": "group",
      "outputs": [
        {
          "internalType": "contract IGroup",
          "name": "",
          "type": "address"
        }
      ],
      "stateMutability": "view",
      "type": "function"
    },
    {
      "inputs": [
        {
          "internalType": "uint256",
          "name": "",
          "type": "uint256"
        }
      ],
      "name": "groupDesc",
      "outputs": [
        {
          "internalType": "string",
          "name": "",
          "type": "string"
        }
      ],
      "stateMutability": "view",
      "type": "function"
    },
    {
      "inputs": [
        {
          "internalType": "uint256",
          "name": "",
          "type": "uint256"
        }
      ],
      "name": "groupIcon",
      "outputs": [
        {
          "internalType": "string",
          "name": "",
          "type": "string"
        }
      ],
      "stateMutability": "view",
      "type": "function"
    },
    {
      "inputs": [
        {
          "internalType": "uint256",
          "name": "",
          "type": "uint256"
        }
      ],
      "name": "groupName",
      "outputs": [
        {
          "internalType": "string",
          "name": "",
          "type": "string"
        }
      ],
      "stateMutability": "view",
      "type": "function"
    },
    {
      "inputs": [
        {
          "internalType": "uint256",
          "name": "",
          "type": "uint256"
        }
      ],
      "name": "groupPollNum",
      "outputs": [
        {
          "internalType": "uint256",
          "name": "",
          "type": "uint256"
        }
      ],
      "stateMutability": "view",
      "type": "function"
    },
    {
      "inputs": [
        {
          "internalType": "uint256",
          "name": "",
          "type": "uint256"
        },
        {
          "internalType": "uint256",
          "name": "",
          "type": "uint256"
        }
      ],
      "name": "groupPolls",
      "outputs": [
        {
          "internalType": "uint256",
          "name": "group_id",
          "type": "uint256"
        },
        {
          "internalType": "uint256",
          "name": "id",
          "type": "uint256"
        },
        {
          "internalType": "enum PollState",
          "name": "state",
          "type": "uint8"
        },
        {
          "internalType": "string",
          "name": "title",
          "type": "string"
        },
        {
          "internalType": "string",
          "name": "desc",
          "type": "string"
        }
      ],
      "stateMutability": "view",
      "type": "function"
    },
    {
      "inputs": [
        {
          "internalType": "uint256",
          "name": "",
          "type": "uint256"
        }
      ],
      "name": "groupPrivacy",
      "outputs": [
        {
          "internalType": "string",
          "name": "",
          "type": "string"
        }
      ],
      "stateMutability": "view",
      "type": "function"
    },
    {
      "inputs": [
        {
          "internalType": "uint256",
          "name": "",
          "type": "uint256"
        }
      ],
      "name": "groups",
      "outputs": [
        {
          "internalType": "uint256",
          "name": "id",
          "type": "uint256"
        },
        {
          "internalType": "string",
          "name": "name",
          "type": "string"
        },
        {
          "internalType": "string",
          "name": "desc",
          "type": "string"
        },
        {
          "internalType": "string",
          "name": "icon",
          "type": "string"
        },
        {
          "internalType": "enum Vote.PRIVACY",
          "name": "privacy",
          "type": "uint8"
        },
        {
          "internalType": "address",
          "name": "asset",
          "type": "address"
        }
      ],
      "stateMutability": "view",
      "type": "function"
    },
    {
      "inputs": [
        {
          "internalType": "uint256",
          "name": "",
          "type": "uint256"
        },
        {
          "internalType": "uint256",
          "name": "",
          "type": "uint256"
        }
      ],
      "name": "idInGroup",
      "outputs": [
        {
          "internalType": "bool",
          "name": "",
          "type": "bool"
        }
      ],
      "stateMutability": "view",
      "type": "function"
    },
    {
      "inputs": [
        {
          "internalType": "contract IGroup",
          "name": "_group",
          "type": "address"
        },
        {
          "internalType": "contract ISignal",
          "name": "_signal",
          "type": "address"
        }
      ],
      "name": "initialize",
      "outputs": [],
      "stateMutability": "nonpayable",
      "type": "function"
    },
    {
      "inputs": [
        {
          "internalType": "uint256",
          "name": "",
          "type": "uint256"
        },
        {
          "internalType": "uint256",
          "name": "",
          "type": "uint256"
        },
        {
          "internalType": "string",
          "name": "",
          "type": "string"
        }
      ],
      "name": "pollVoteStat",
      "outputs": [
        {
          "internalType": "uint256",
          "name": "",
          "type": "uint256"
        }
      ],
      "stateMutability": "view",
      "type": "function"
    },
    {
      "inputs": [],
      "name": "signal",
      "outputs": [
        {
          "internalType": "contract ISignal",
          "name": "",
          "type": "address"
        }
      ],
      "stateMutability": "view",
      "type": "function"
    },
    {
      "inputs": [
        {
          "internalType": "uint256",
          "name": "rc",
          "type": "uint256"
        },
        {
          "internalType": "uint256",
          "name": "groupId",
          "type": "uint256"
        },
        {
          "internalType": "uint256[8]",
          "name": "group_proof",
          "type": "uint256[8]"
        },
        {
          "internalType": "bytes32",
          "name": "voteMsg",
          "type": "bytes32"
        },
        {
          "internalType": "uint256",
          "name": "nullifierHash",
          "type": "uint256"
        },
        {
          "internalType": "uint256",
          "name": "externalNullifier",
          "type": "uint256"
        },
        {
          "internalType": "uint256[8]",
          "name": "signal_proof",
          "type": "uint256[8]"
        }
      ],
      "name": "vote",
      "outputs": [],
      "stateMutability": "nonpayable",
      "type": "function"
    },
    {
      "inputs": [
        {
          "internalType": "uint256",
          "name": "rc",
          "type": "uint256"
        },
        {
          "internalType": "uint256",
          "name": "groupId",
          "type": "uint256"
        },
        {
          "internalType": "uint256[8]",
          "name": "group_proof",
          "type": "uint256[8]"
        },
        {
          "internalType": "uint256",
          "name": "pollId",
          "type": "uint256"
        },
        {
          "internalType": "string",
          "name": "voteMsg",
          "type": "string"
        },
        {
          "internalType": "uint256",
          "name": "nullifierHash",
          "type": "uint256"
        },
        {
          "internalType": "uint256[8]",
          "name": "signal_proof",
          "type": "uint256[8]"
        }
      ],
      "name": "voteInPoll",
      "outputs": [],
      "stateMutability": "nonpayable",
      "type": "function"
    },
    {
      "inputs": [
        {
          "internalType": "uint256",
          "name": "",
          "type": "uint256"
        },
        {
          "internalType": "bytes32",
          "name": "",
          "type": "bytes32"
        }
      ],
      "name": "voteStat",
      "outputs": [
        {
          "internalType": "uint256",
          "name": "",
          "type": "uint256"
        }
      ],
      "stateMutability": "view",
      "type": "function"
    }
  ],
  "bytecode": "0x608060405234801561001057600080fd5b5061328c806100206000396000f3fe608060405234801561001057600080fd5b50600436106101585760003560e01c80638e52dd69116100c3578063c8b88cfb1161007c578063c8b88cfb14610440578063c96e71fb1461045c578063cdd08ed31461048c578063d643faac146104a8578063e5ba7314146104d8578063eb0db1301461050857610158565b80638e52dd691461032f57806396324bd41461035f578063a31a656714610394578063bdf4021b146103c4578063be1e386c146103e0578063c496c4ed1461041057610158565b8063485cc95511610115578063485cc955146102435780634dd9c0b51461025f578063640d090b1461027d5780636a1c16ec1461029b5780637cdac869146102cf5780638bf63c74146102ff57610158565b8063134d63a21461015d57806314bfd6d01461018d57806314f41374146101bd5780631783efc3146101ed57806328ce2d321461020957806329e7ef2d14610225575b600080fd5b61017760048036038101906101729190612033565b610538565b60405161018491906129aa565b60405180910390f35b6101a760048036038101906101a29190612033565b6105d8565b6040516101b4919061283f565b60405180910390f35b6101d760048036038101906101d29190612033565b61060b565b6040516101e49190612a6c565b60405180910390f35b610207600480360381019061020291906123a5565b610623565b005b610223600480360381019061021e9190612484565b61079a565b005b61022d610883565b60405161023a9190612890565b60405180910390f35b61025d60048036038101906102589190611ff7565b6108a7565b005b61026761093c565b6040516102749190612a6c565b60405180910390f35b610285610942565b60405161029291906128ab565b60405180910390f35b6102b560048036038101906102b091906123a5565b610968565b6040516102c6959493929190612be9565b60405180910390f35b6102e960048036038101906102e49190612369565b610ac8565b6040516102f69190612a6c565b60405180910390f35b610319600480360381019061031491906123a5565b610aed565b604051610326919061285a565b60405180910390f35b61034960048036038101906103449190612543565b610b1c565b6040516103569190612a6c565b60405180910390f35b61037960048036038101906103749190612033565b610b64565b60405161038b96959493929190612adb565b60405180910390f35b6103ae60048036038101906103a99190612033565b610d65565b6040516103bb91906129aa565b60405180910390f35b6103de60048036038101906103d991906123e1565b610e05565b005b6103fa60048036038101906103f59190612033565b611064565b60405161040791906129aa565b60405180910390f35b61042a600480360381019061042591906121b4565b611104565b6040516104379190612a6c565b60405180910390f35b61045a60048036038101906104559190612033565b6111ac565b005b61047660048036038101906104719190612085565b611353565b6040516104839190612a6c565b60405180910390f35b6104a660048036038101906104a191906123a5565b611458565b005b6104c260048036038101906104bd91906120c1565b61148a565b6040516104cf9190612a6c565b60405180910390f35b6104f260048036038101906104ed91906122b0565b611747565b6040516104ff9190612a6c565b60405180910390f35b610522600480360381019061051d9190612033565b611aef565b60405161052f91906129aa565b60405180910390f35b6007602052806000526040600020600091509050805461055790612f4e565b80601f016020809104026020016040519081016040528092919081815260200182805461058390612f4e565b80156105d05780601f106105a5576101008083540402835291602001916105d0565b820191906000526020600020905b8154815290600101906020018083116105b357829003601f168201915b505050505081565b60056020528060005260406000206000915054906101000a900473ffffffffffffffffffffffffffffffffffffffff1681565b600c6020528060005260406000206000915090505481565b60046000838152602001908152602001600020600082815260200190815260200160002060009054906101000a900460ff1615610695576040517f08c379a000000000000000000000000000000000000000000000000000000000815260040161068c906129cc565b60405180910390fd5b61069e826111ac565b60008054906101000a900473ffffffffffffffffffffffffffffffffffffffff1673ffffffffffffffffffffffffffffffffffffffff16631783efc383836040518363ffffffff1660e01b81526004016106f9929190612b51565b600060405180830381600087803b15801561071357600080fd5b505af1158015610727573d6000803e3d6000fd5b50505050600160046000848152602001908152602001600020600083815260200190815260200160002060006101000a81548160ff02191690831515021790555080827fa7971101f3ab1808fedaf53dcda952637961dcc1153334a243c3426fc83c859460405160405180910390a35050565b600085608089901b6107ac9190612dae565b90506107e589898988886040516020016107c79291906128c6565b60405160208183030381529060405280519060200120878688610e05565b600d600089815260200190815260200160002060008781526020019081526020016000208585604051610819929190612826565b9081526020016040518091039020600081548092919061083890612fb1565b919050555085887fa785f00daff380596c63910b315b519bb13df90ed6743b7ed0c312cafb36b9f087876040516108709291906128c6565b60405180910390a3505050505050505050565b60008054906101000a900473ffffffffffffffffffffffffffffffffffffffff1681565b6108af611b8f565b816000806101000a81548173ffffffffffffffffffffffffffffffffffffffff021916908373ffffffffffffffffffffffffffffffffffffffff16021790555080600160006101000a81548173ffffffffffffffffffffffffffffffffffffffff021916908373ffffffffffffffffffffffffffffffffffffffff16021790555060006003819055505050565b60035481565b600160009054906101000a900473ffffffffffffffffffffffffffffffffffffffff1681565b600b602052816000526040600020602052806000526040600020600091509150508060000154908060010154908060030160009054906101000a900460ff16908060040180546109b790612f4e565b80601f01602080910402602001604051908101604052809291908181526020018280546109e390612f4e565b8015610a305780601f10610a0557610100808354040283529160200191610a30565b820191906000526020600020905b815481529060010190602001808311610a1357829003601f168201915b505050505090806005018054610a4590612f4e565b80601f0160208091040260200160405190810160405280929190818152602001828054610a7190612f4e565b8015610abe5780601f10610a9357610100808354040283529160200191610abe565b820191906000526020600020905b815481529060010190602001808311610aa157829003601f168201915b5050505050905085565b6002602052816000526040600020602052806000526040600020600091509150505481565b60046020528160005260406000206020528060005260406000206000915091509054906101000a900460ff1681565b600d6020528260005260406000206020528160005260406000208180516020810182018051848252602083016020850120818352809550505050505060009250925050505481565b600a602052806000526040600020600091509050806000015490806001018054610b8d90612f4e565b80601f0160208091040260200160405190810160405280929190818152602001828054610bb990612f4e565b8015610c065780601f10610bdb57610100808354040283529160200191610c06565b820191906000526020600020905b815481529060010190602001808311610be957829003601f168201915b505050505090806002018054610c1b90612f4e565b80601f0160208091040260200160405190810160405280929190818152602001828054610c4790612f4e565b8015610c945780601f10610c6957610100808354040283529160200191610c94565b820191906000526020600020905b815481529060010190602001808311610c7757829003601f168201915b505050505090806003018054610ca990612f4e565b80601f0160208091040260200160405190810160405280929190818152602001828054610cd590612f4e565b8015610d225780601f10610cf757610100808354040283529160200191610d22565b820191906000526020600020905b815481529060010190602001808311610d0557829003601f168201915b5050505050908060040160009054906101000a900460ff16908060040160019054906101000a900473ffffffffffffffffffffffffffffffffffffffff16905086565b60086020528060005260406000206000915090508054610d8490612f4e565b80601f0160208091040260200160405190810160405280929190818152602001828054610db090612f4e565b8015610dfd5780601f10610dd257610100808354040283529160200191610dfd565b820191906000526020600020905b815481529060010190602001808311610de057829003601f168201915b505050505081565b60008054906101000a900473ffffffffffffffffffffffffffffffffffffffff1673ffffffffffffffffffffffffffffffffffffffff1663f452ffa28888886040518463ffffffff1660e01b8152600401610e6293929190612bb1565b602060405180830381600087803b158015610e7c57600080fd5b505af1158015610e90573d6000803e3d6000fd5b505050506040513d601f19601f82011682018060405250810190610eb49190611fce565b610ef3576040517f08c379a0000000000000000000000000000000000000000000000000000000008152600401610eea906129ec565b60405180910390fd5b600160009054906101000a900473ffffffffffffffffffffffffffffffffffffffff1673ffffffffffffffffffffffffffffffffffffffff166346cf37b688868686866040518663ffffffff1660e01b8152600401610f56959493929190612a87565b602060405180830381600087803b158015610f7057600080fd5b505af1158015610f84573d6000803e3d6000fd5b505050506040513d601f19601f82011682018060405250810190610fa89190611fce565b610fe7576040517f08c379a0000000000000000000000000000000000000000000000000000000008152600401610fde90612a4c565b60405180910390fd5b857f9259c591af3680137739dc2b275c388eb1639a143b49022e7062fa162f14776d856040516110179190612875565b60405180910390a2600160026000888152602001908152602001600020600086815260200190815260200160002060008282546110549190612dae565b9250508190555050505050505050565b6009602052806000526040600020600091509050805461108390612f4e565b80601f01602080910402602001604051908101604052809291908181526020018280546110af90612f4e565b80156110fc5780601f106110d1576101008083540402835291602001916110fc565b820191906000526020600020905b8154815290600101906020018083116110df57829003601f168201915b505050505081565b60006111108b8b611353565b90508888600960008481526020019081526020016000209190611134929190611c1f565b508686600660008481526020019081526020016000209190611157929190611c1f565b50848460086000848152602001908152602001600020919061117a929190611c1f565b50828260076000848152602001908152602001600020919061119d929190611c1f565b509a9950505050505050505050565b600160028111156111e6577f4e487b7100000000000000000000000000000000000000000000000000000000600052602160045260246000fd5b600a600083815260200190815260200160002060040160009054906101000a900460ff166002811115611242577f4e487b7100000000000000000000000000000000000000000000000000000000600052602160045260246000fd5b1415611350576000600a600083815260200190815260200160002060040160019054906101000a900473ffffffffffffffffffffffffffffffffffffffff16905060008173ffffffffffffffffffffffffffffffffffffffff166370a08231336040518263ffffffff1660e01b81526004016112be919061283f565b60206040518083038186803b1580156112d657600080fd5b505afa1580156112ea573d6000803e3d6000fd5b505050506040513d601f19601f8201168201806040525081019061130e919061205c565b1161134e576040517f08c379a000000000000000000000000000000000000000000000000000000000815260040161134590612a2c565b60405180910390fd5b505b50565b60008060009054906101000a900473ffffffffffffffffffffffffffffffffffffffff1673ffffffffffffffffffffffffffffffffffffffff16639c1121416003600081546113a190612fb1565b91905081905585306040518463ffffffff1660e01b81526004016113c793929190612b7a565b600060405180830381600087803b1580156113e157600080fd5b505af11580156113f5573d6000803e3d6000fd5b505050508160056000600354815260200190815260200160002060006101000a81548173ffffffffffffffffffffffffffffffffffffffff021916908373ffffffffffffffffffffffffffffffffffffffff160217905550600354905092915050565b80827fde2269d339c1bc109f68138c6cfc49c60f864e49a5744459bcce7170c4fb2ad660405160405180910390a35050565b60006114968b8b611353565b90506040518060c001604052808281526020018a8a8080601f016020809104026020016040519081016040528093929190818152602001838380828437600081840152601f19601f82011690508083019250505050505050815260200188888080601f016020809104026020016040519081016040528093929190818152602001838380828437600081840152601f19601f82011690508083019250505050505050815260200185858080601f016020809104026020016040519081016040528093929190818152602001838380828437600081840152601f19601f8201169050808301925050505050505081526020018660028111156115c0577f4e487b7100000000000000000000000000000000000000000000000000000000600052602160045260246000fd5b81526020018373ffffffffffffffffffffffffffffffffffffffff16815250600a6000838152602001908152602001600020600082015181600001556020820151816001019080519060200190611618929190611ca5565b506040820151816002019080519060200190611635929190611ca5565b506060820151816003019080519060200190611652929190611ca5565b5060808201518160040160006101000a81548160ff021916908360028111156116a4577f4e487b7100000000000000000000000000000000000000000000000000000000600052602160045260246000fd5b021790555060a08201518160040160016101000a81548173ffffffffffffffffffffffffffffffffffffffff021916908373ffffffffffffffffffffffffffffffffffffffff160217905550905050807ffbc0e4d489bafdc23c650045b28a1a23beaa29c197bd6d5326b1d7760c5748de8a8a8a8a89898c8a60405161173198979695949392919061293c565b60405180910390a29a9950505050505050505050565b6000600c6000898152602001908152602001600020600081548092919061176d90612fb1565b9190505590506040518060c001604052808981526020018281526020018888905067ffffffffffffffff8111156117cd577f4e487b7100000000000000000000000000000000000000000000000000000000600052604160045260246000fd5b60405190808252806020026020018201604052801561180057816020015b60608152602001906001900390816117eb5790505b50815260200160006002811115611840577f4e487b7100000000000000000000000000000000000000000000000000000000600052602160045260246000fd5b815260200186868080601f016020809104026020016040519081016040528093929190818152602001838380828437600081840152601f19601f82011690508083019250505050505050815260200184848080601f016020809104026020016040519081016040528093929190818152602001838380828437600081840152601f19601f82011690508083019250505050505050815250600b60008a815260200190815260200160002060008381526020019081526020016000206000820151816000015560208201518160010155604082015181600201908051906020019061192b929190611d2b565b5060608201518160030160006101000a81548160ff0219169083600281111561197d577f4e487b7100000000000000000000000000000000000000000000000000000000600052602160045260246000fd5b0217905550608082015181600401908051906020019061199e929190611ca5565b5060a08201518160050190805190602001906119bb929190611ca5565b5090505060005b87879050811015611aa057878782818110611a06577f4e487b7100000000000000000000000000000000000000000000000000000000600052603260045260246000fd5b9050602002810190611a189190612c4a565b600b60008c815260200190815260200160002060008581526020019081526020016000206002018381548110611a77577f4e487b7100000000000000000000000000000000000000000000000000000000600052603260045260246000fd5b906000526020600020019190611a8e929190611c1f565b5080611a9990612fb1565b90506119c2565b5080887fad6252367429e16cd7fe2086eaf547b3ff0ebb63b8438a731f63cdbc137e68d487878b8b8989604051611adc969594939291906128ea565b60405180910390a3979650505050505050565b60066020528060005260406000206000915090508054611b0e90612f4e565b80601f0160208091040260200160405190810160405280929190818152602001828054611b3a90612f4e565b8015611b875780601f10611b5c57610100808354040283529160200191611b87565b820191906000526020600020905b815481529060010190602001808311611b6a57829003601f168201915b505050505081565b60007f8e94fed44239eb2314ab7a406345e6c5a8f0ccedf3b600de3d004e672c33abf454905060017f8e94fed44239eb2314ab7a406345e6c5a8f0ccedf3b600de3d004e672c33abf45560008114611c1c576040517f08c379a0000000000000000000000000000000000000000000000000000000008152600401611c1390612a0c565b60405180910390fd5b50565b828054611c2b90612f4e565b90600052602060002090601f016020900481019282611c4d5760008555611c94565b82601f10611c6657803560ff1916838001178555611c94565b82800160010185558215611c94579182015b82811115611c93578235825591602001919060010190611c78565b5b509050611ca19190611d8b565b5090565b828054611cb190612f4e565b90600052602060002090601f016020900481019282611cd35760008555611d1a565b82601f10611cec57805160ff1916838001178555611d1a565b82800160010185558215611d1a579182015b82811115611d19578251825591602001919060010190611cfe565b5b509050611d279190611d8b565b5090565b828054828255906000526020600020908101928215611d7a579160200282015b82811115611d79578251829080519060200190611d69929190611ca5565b5091602001919060010190611d4b565b5b509050611d879190611da8565b5090565b5b80821115611da4576000816000905550600101611d8c565b5090565b5b80821115611dc85760008181611dbf9190611dcc565b50600101611da9565b5090565b508054611dd890612f4e565b6000825580601f10611dea5750611e09565b601f016020900490600052602060002090810190611e089190611d8b565b5b50565b6000611e1f611e1a84612cc6565b612ca1565b905082815260208101848484011115611e3757600080fd5b611e42848285612f0c565b509392505050565b600081359050611e59816131bc565b92915050565b60008083601f840112611e7157600080fd5b8235905067ffffffffffffffff811115611e8a57600080fd5b602083019150836020820283011115611ea257600080fd5b9250929050565b600081905082602060080282011115611ec157600080fd5b92915050565b600081519050611ed6816131d3565b92915050565b600081359050611eeb816131ea565b92915050565b600081359050611f0081613201565b92915050565b600081359050611f1581613218565b92915050565b600081359050611f2a8161322f565b92915050565b60008083601f840112611f4257600080fd5b8235905067ffffffffffffffff811115611f5b57600080fd5b602083019150836001820283011115611f7357600080fd5b9250929050565b600082601f830112611f8b57600080fd5b8135611f9b848260208601611e0c565b91505092915050565b600081359050611fb38161323f565b92915050565b600081519050611fc88161323f565b92915050565b600060208284031215611fe057600080fd5b6000611fee84828501611ec7565b91505092915050565b6000806040838503121561200a57600080fd5b600061201885828601611ef1565b925050602061202985828601611f06565b9150509250929050565b60006020828403121561204557600080fd5b600061205384828501611fa4565b91505092915050565b60006020828403121561206e57600080fd5b600061207c84828501611fb9565b91505092915050565b6000806040838503121561209857600080fd5b60006120a685828601611fa4565b92505060206120b785828601611e4a565b9150509250929050565b60008060008060008060008060008060e08b8d0312156120e057600080fd5b60006120ee8d828e01611fa4565b9a505060206120ff8d828e01611e4a565b99505060408b013567ffffffffffffffff81111561211c57600080fd5b6121288d828e01611f30565b985098505060608b013567ffffffffffffffff81111561214757600080fd5b6121538d828e01611f30565b965096505060806121668d828e01611f1b565b94505060a08b013567ffffffffffffffff81111561218357600080fd5b61218f8d828e01611f30565b935093505060c06121a28d828e01611e4a565b9150509295989b9194979a5092959850565b60008060008060008060008060008060c08b8d0312156121d357600080fd5b60006121e18d828e01611fa4565b9a505060206121f28d828e01611e4a565b99505060408b013567ffffffffffffffff81111561220f57600080fd5b61221b8d828e01611f30565b985098505060608b013567ffffffffffffffff81111561223a57600080fd5b6122468d828e01611f30565b965096505060808b013567ffffffffffffffff81111561226557600080fd5b6122718d828e01611f30565b945094505060a08b013567ffffffffffffffff81111561229057600080fd5b61229c8d828e01611f30565b92509250509295989b9194979a5092959850565b60008060008060008060006080888a0312156122cb57600080fd5b60006122d98a828b01611fa4565b975050602088013567ffffffffffffffff8111156122f657600080fd5b6123028a828b01611e5f565b9650965050604088013567ffffffffffffffff81111561232157600080fd5b61232d8a828b01611f30565b9450945050606088013567ffffffffffffffff81111561234c57600080fd5b6123588a828b01611f30565b925092505092959891949750929550565b6000806040838503121561237c57600080fd5b600061238a85828601611fa4565b925050602061239b85828601611edc565b9150509250929050565b600080604083850312156123b857600080fd5b60006123c685828601611fa4565b92505060206123d785828601611fa4565b9150509250929050565b60008060008060008060006102a0888a0312156123fd57600080fd5b600061240b8a828b01611fa4565b975050602061241c8a828b01611fa4565b965050604061242d8a828b01611ea9565b95505061014061243f8a828b01611edc565b9450506101606124518a828b01611fa4565b9350506101806124638a828b01611fa4565b9250506101a06124758a828b01611ea9565b91505092959891949750929550565b6000806000806000806000806102a0898b0312156124a157600080fd5b60006124af8b828c01611fa4565b98505060206124c08b828c01611fa4565b97505060406124d18b828c01611ea9565b9650506101406124e38b828c01611fa4565b95505061016089013567ffffffffffffffff81111561250157600080fd5b61250d8b828c01611f30565b94509450506101806125218b828c01611fa4565b9250506101a06125338b828c01611ea9565b9150509295985092959890939650565b60008060006060848603121561255857600080fd5b600061256686828701611fa4565b935050602061257786828701611fa4565b925050604084013567ffffffffffffffff81111561259457600080fd5b6125a086828701611f7a565b9150509250925092565b60006125b78484846126b0565b90509392505050565b6125c981612e04565b82525050565b60006125db8385612d19565b9350836020840285016125ed84612cf7565b8060005b878110156126335784840389526126088284612d57565b6126138682846125aa565b955061261e84612d0c565b935060208b019a5050506001810190506125f1565b50829750879450505050509392505050565b6126526101008383612f0c565b5050565b61265f81612e16565b82525050565b61266e81612e22565b82525050565b61267d81612ea0565b82525050565b61268c81612ec4565b82525050565b61269b81612ee8565b82525050565b6126aa81612efa565b82525050565b60006126bc8385612d2a565b93506126c9838584612f0c565b6126d2836130b6565b840190509392505050565b60006126e98385612d3b565b93506126f6838584612f0c565b6126ff836130b6565b840190509392505050565b60006127168385612d4c565b9350612723838584612f0c565b82840190509392505050565b600061273a82612d01565b6127448185612d3b565b9350612754818560208601612f1b565b61275d816130b6565b840191505092915050565b6000612775601283612d3b565b9150612780826130c7565b602082019050919050565b6000612798600f83612d3b565b91506127a3826130f0565b602082019050919050565b60006127bb600283612d3b565b91506127c682613119565b602082019050919050565b60006127de600c83612d3b565b91506127e982613142565b602082019050919050565b6000612801600b83612d3b565b915061280c8261316b565b602082019050919050565b61282081612e96565b82525050565b600061283382848661270a565b91508190509392505050565b600060208201905061285460008301846125c0565b92915050565b600060208201905061286f6000830184612656565b92915050565b600060208201905061288a6000830184612665565b92915050565b60006020820190506128a56000830184612674565b92915050565b60006020820190506128c06000830184612683565b92915050565b600060208201905081810360008301526128e18184866126dd565b90509392505050565b6000606082019050818103600083015261290581888a6126dd565b9050818103602083015261291a8186886125cf565b9050818103604083015261292f8184866126dd565b9050979650505050505050565b600060a0820190508181036000830152612957818a8c6126dd565b9050818103602083015261296c81888a6126dd565b905081810360408301526129818186886126dd565b90506129906060830185612692565b61299d60808301846125c0565b9998505050505050505050565b600060208201905081810360008301526129c4818461272f565b905092915050565b600060208201905081810360008301526129e581612768565b9050919050565b60006020820190508181036000830152612a058161278b565b9050919050565b60006020820190508181036000830152612a25816127ae565b9050919050565b60006020820190508181036000830152612a45816127d1565b9050919050565b60006020820190508181036000830152612a65816127f4565b9050919050565b6000602082019050612a816000830184612817565b92915050565b600061018082019050612a9d6000830188612817565b612aaa6020830187612665565b612ab76040830186612817565b612ac46060830185612817565b612ad16080830184612645565b9695505050505050565b600060c082019050612af06000830189612817565b8181036020830152612b02818861272f565b90508181036040830152612b16818761272f565b90508181036060830152612b2a818661272f565b9050612b396080830185612692565b612b4660a08301846125c0565b979650505050505050565b6000604082019050612b666000830185612817565b612b736020830184612817565b9392505050565b6000606082019050612b8f6000830186612817565b612b9c6020830185612817565b612ba960408301846125c0565b949350505050565b600061014082019050612bc76000830186612817565b612bd46020830185612817565b612be16040830184612645565b949350505050565b600060a082019050612bfe6000830188612817565b612c0b6020830187612817565b612c1860408301866126a1565b8181036060830152612c2a818561272f565b90508181036080830152612c3e818461272f565b90509695505050505050565b60008083356001602003843603038112612c6357600080fd5b80840192508235915067ffffffffffffffff821115612c8157600080fd5b602083019250600182023603831315612c9957600080fd5b509250929050565b6000612cab612cbc565b9050612cb78282612f80565b919050565b6000604051905090565b600067ffffffffffffffff821115612ce157612ce0613087565b5b612cea826130b6565b9050602081019050919050565b6000819050919050565b600081519050919050565b6000602082019050919050565b600082825260208201905092915050565b600082825260208201905092915050565b600082825260208201905092915050565b600081905092915050565b60008083356001602003843603038112612d7057600080fd5b83810192508235915060208301925067ffffffffffffffff821115612d9457600080fd5b600182023603841315612da657600080fd5b509250929050565b6000612db982612e96565b9150612dc483612e96565b9250827fffffffffffffffffffffffffffffffffffffffffffffffffffffffffffffffff03821115612df957612df8612ffa565b5b828201905092915050565b6000612e0f82612e76565b9050919050565b60008115159050919050565b6000819050919050565b6000612e3782612e04565b9050919050565b6000612e4982612e04565b9050919050565b6000819050612e5e82613194565b919050565b6000819050612e71826131a8565b919050565b600073ffffffffffffffffffffffffffffffffffffffff82169050919050565b6000819050919050565b6000612eab82612eb2565b9050919050565b6000612ebd82612e76565b9050919050565b6000612ecf82612ed6565b9050919050565b6000612ee182612e76565b9050919050565b6000612ef382612e50565b9050919050565b6000612f0582612e63565b9050919050565b82818337600083830152505050565b60005b83811015612f39578082015181840152602081019050612f1e565b83811115612f48576000848401525b50505050565b60006002820490506001821680612f6657607f821691505b60208210811415612f7a57612f79613058565b5b50919050565b612f89826130b6565b810181811067ffffffffffffffff82111715612fa857612fa7613087565b5b80604052505050565b6000612fbc82612e96565b91507fffffffffffffffffffffffffffffffffffffffffffffffffffffffffffffffff821415612fef57612fee612ffa565b5b600182019050919050565b7f4e487b7100000000000000000000000000000000000000000000000000000000600052601160045260246000fd5b7f4e487b7100000000000000000000000000000000000000000000000000000000600052602160045260246000fd5b7f4e487b7100000000000000000000000000000000000000000000000000000000600052602260045260246000fd5b7f4e487b7100000000000000000000000000000000000000000000000000000000600052604160045260246000fd5b6000601f19601f8301169050919050565b7f696420657869737420696e2067726f7570210000000000000000000000000000600082015250565b7f67726f75702070726f6f66206572720000000000000000000000000000000000600082015250565b7f3142000000000000000000000000000000000000000000000000000000000000600082015250565b7f6d697373696e67206e6674210000000000000000000000000000000000000000600082015250565b7f7369676e616c206661696c000000000000000000000000000000000000000000600082015250565b600381106131a5576131a4613029565b5b50565b600381106131b9576131b8613029565b5b50565b6131c581612e04565b81146131d057600080fd5b50565b6131dc81612e16565b81146131e757600080fd5b50565b6131f381612e22565b81146131fe57600080fd5b50565b61320a81612e2c565b811461321557600080fd5b50565b61322181612e3e565b811461322c57600080fd5b50565b6003811061323c57600080fd5b50565b61324881612e96565b811461325357600080fd5b5056fea26469706673582212200da16f357f47206cdb48ccf3724105777ce9442a1f9f34f9d3cb6e5981965a2164736f6c63430008040033",
  "linkReferences": {},
  "deployedLinkReferences": {}
}